:04000000FEEF09F016
:1010000000002750D8B407EF08F009EF08F079EF97
:1010100008F02750D96EDA6A050EDF6012EF08F08B
:1010200014EF08F079EF08F02804D8B41AEF08F0AC
:101030001CEF08F064EF08F02850D8B422EF08F055
:1010400024EF08F064EF08F079EF08F02750D96E2C
:10105000DA6A030ED92628C0DFFF2750D96EDA6A74
:10106000DF50020DF350010FD96EDA6ADECF22F0A5
:10107000DDCF23F02750D96EDA6A010ED926DF5072
:10108000246E7AEC08F079EF08F02750D96EDA6A0E
:10109000030ED92628C0DFFF2750D96EDA6ADF5049
:1010A000020DF350010FD96EDA6ADECF22F0DDCFE8
:1010B00023F02750D96EDA6A010ED926DF50246E4C
:1010C00053EC09F079EF08F02850296E2A6A2A506B
:1010D000000AD8B46EEF08F079EF08F02950000A42
:1010E000D8B445EF08F0010AD8B426EF08F079EF3C
:1010F00008F0120022502310D8A481EF08F083EFEB
:1011000008F0C5EF08F0F2EF08F022C0D9FF23C0C5
:10111000DAFF000EDB80F2EF08F022C0D9FF23C017
:10112000DAFF000EDB82F2EF08F022C0D9FF23C005
:10113000DAFF000EDB84F2EF08F022C0D9FF23C0F3
:10114000DAFF000EDB86F2EF08F022C0D9FF23C0E1
:10115000DAFF000EDB88F2EF08F022C0D9FF23C0CF
:10116000DAFF000EDB8AF2EF08F022C0D9FF23C0BD
:10117000DAFF000EDB8CF2EF08F022C0D9FF23C0AB
:10118000DAFF000EDB8EF2EF08F02450256E266A9F
:101190002650000AD8B4CFEF08F0F2EF08F025503F
:1011A000000AD8B485EF08F0010AD8B48DEF08F032
:1011B000030AD8B495EF08F0010AD8B49DEF08F0FF
:1011C000070AD8B4A5EF08F0010AD8B4ADEF08F0CB
:1011D000030AD8B4B5EF08F0010AD8B4BDEF08F09F
:1011E000F2EF08F012002750D8B4F9EF08F0FBEF47
:1011F00008F052EF09F02750D96EDA6A040EDF6466
:1012000004EF09F006EF09F038EF09F052EF09F0AA
:101210002750D96EDA6ADF50020DF350150FD96EE0
:10122000DA6ADECF22F0DDCF23F02750D96EDA6AFA
:10123000010ED926DF50246E53EC09F052EF09F06D
:101240002750D96EDA6ADF50020DF350150FD96EB0
:10125000DA6ADECF22F0DDCF23F02750D96EDA6ACA
:10126000010ED926DF50246E7AEC08F052EF09F017
:101270002750D96EDA6A020ED926DF50286E296A05
:101280002950000AD8B447EF09F052EF09F028506E
:10129000000AD8B408EF09F0010AD8B420EF09F029
:1012A00052EF09F0120022502310D8A45AEF09F08F
:1012B0005CEF09F065EF09F092EF09F022C0D9FF69
:1012C00023C0DAFFDF6A92EF09F02450256E266A08
:1012D0002650000AD8B46FEF09F092EF09F02550BC
:1012E000000AD8B45EEF09F0010AD8B45EEF09F045
:1012F000030AD8B45EEF09F0010AD8B45EEF09F032
:10130000070AD8B45EEF09F0010AD8B45EEF09F01D
:10131000030AD8B45EEF09F0010AD8B45EEF09F011
:1013200092EF09F012002B50D8A499EF09F09BEF2F
:1013300009F0B5EF09F0010ED0EF09F02BC027F04E
:10134000F3EC08F0CFEF09F02BC027F0F3EC08F036
:101350002BC027F02B50D96EDA6A030ED926DF5046
:10136000286E01EC08F0CFEF09F02B50D96EDA6A45
:10137000020ED926DF502C6E2D6A2D50000AD8B4EB
:10138000C4EF09F09BEF09F02C50000AD8B4A4EF89
:1013900009F0010AD8B49EEF09F09BEF09F0000EA6
:1013A00012002E50D8A4D7EF09F0D9EF09F0DBEFE7
:1013B00009F0FDEF09F020EE34F010EE2FF0040EEE
:1013C000DBCFE3FFE806FCE22E50D96EDA6ADF508D
:1013D0002F6E2E50D96EDA6A010ED926DF50306E8C
:1013E000000E316E2E50D96EDA6A020ED926DF5009
:1013F000326E2F0E2B6E93EC09F01200300EF66E4B
:10140000140EF76E000EF86E00EE01F010EE21F0F3
:101410000900F5CFEEFFE550E150FAE1386A376A8E
:10142000366A356A346A000EF86E000129EF0AF058
:10143000890F8A0F8B0F8C0F8D0F800F810F820FFA
:10144000830F840F920F930F940F950F960F020541
:01145000019A
:101452001F0E2E6ED1EC09F02DEF0AF000EF00F016
:020000040030CA
:0E000000FF02091EFF8181FF0FC00FE00F40BD
:00000001FF
