:04000000EAEF0AF029
:1010000000006150D8A407EF08F009EF08F02BEFBB
:1010100008F0B6EF08F0010E646E5DEF08F0020E06
:10102000646E5DEF08F0040E646E5DEF08F0080E6C
:10103000646E5DEF08F0100E646E5DEF08F0200E38
:10104000646E5DEF08F0400E646E5DEF08F0800E98
:10105000646E5DEF08F06150D96EDA6A010ED92630
:10106000DF50626E636A6350000AD8B43AEF08F04A
:10107000B6EF08F06250000AD8B40BEF08F0010A8E
:10108000D8B40FEF08F0030AD8B413EF08F0010A40
:10109000D8B417EF08F0070AD8B41BEF08F0010A1C
:1010A000D8B41FEF08F0030AD8B423EF08F0010A00
:1010B000D8B427EF08F0B6EF08F06150D96EDA6ABD
:1010C000DF50020DF350010FD96EDA6ADECF62F005
:1010D000DDCF63F062C0D9FF63C0DAFF6450DF1A6E
:1010E0006150D96EDA6ADF50020DF350010FD96EEC
:1010F000DA6ADECF62F0DDCF63F062C0D9FF63C091
:10110000DAFFDF5064146418D8A489EF08F08BEF7D
:1011100008F094EF08F06150D96EDA6A030ED92610
:10112000010EDF6EB6EF08F06150D96EDA6ADF505B
:10113000020DF350010FD96EDA6ADECF62F0DDCF17
:1011400063F062C0D9FF63C0DAFFDF5064140009A6
:10115000D8A4ADEF08F0AFEF08F0B6EF08F061509B
:10116000D96EDA6A030ED926010EDF6E12006650C0
:10117000D8B4BDEF08F0BFEF08F02FEF09F06650CC
:10118000D96EDA6A050EDF60C8EF08F0CAEF08F022
:101190002FEF09F06704D8B4D0EF08F0D2EF08F0D1
:1011A0001AEF09F06750D8B4D8EF08F0DAEF08F07A
:1011B0001AEF09F02FEF09F06650D96EDA6A030EC4
:1011C000D92667C0DFFF6650D96EDA6ADF50020D9C
:1011D000F350010FD96EDA6ADECF61F0DDCF62F035
:1011E0006650D96EDA6A010ED926DF50636E30EC94
:1011F00009F02FEF09F06650D96EDA6A030ED9268E
:1012000067C0DFFF6650D96EDA6ADF50020DF35017
:10121000010FD96EDA6ADECF61F0DDCF62F0665081
:10122000D96EDA6A010ED926DF50636EA9EC09F097
:101230002FEF09F06750686E696A6950000AD8B4E8
:1012400024EF09F02FEF09F06850000AD8B4FBEF43
:1012500008F0010AD8B4DCEF08F02FEF09F0120013
:1012600061506210D8A437EF09F039EF09F07BEF35
:1012700009F0A8EF09F061C0D9FF62C0DAFF000EE3
:10128000DB80A8EF09F061C0D9FF62C0DAFF000E71
:10129000DB82A8EF09F061C0D9FF62C0DAFF000E5F
:1012A000DB84A8EF09F061C0D9FF62C0DAFF000E4D
:1012B000DB86A8EF09F061C0D9FF62C0DAFF000E3B
:1012C000DB88A8EF09F061C0D9FF62C0DAFF000E29
:1012D000DB8AA8EF09F061C0D9FF62C0DAFF000E17
:1012E000DB8CA8EF09F061C0D9FF62C0DAFF000E05
:1012F000DB8EA8EF09F06350646E656A6550000AE2
:10130000D8B485EF09F0A8EF09F06450000AD8B40A
:101310003BEF09F0010AD8B443EF09F0030AD8B44F
:101320004BEF09F0010AD8B453EF09F0070AD8B41B
:101330005BEF09F0010AD8B463EF09F0030AD8B4EF
:101340006BEF09F0010AD8B473EF09F0A8EF09F0C8
:10135000120061506210D8A4B0EF09F0B2EF09F0AA
:10136000F4EF09F021EF0AF061C0D9FF62C0DAFFA3
:10137000FE0EDF1621EF0AF061C0D9FF62C0DAFF6E
:10138000FD0EDF1621EF0AF061C0D9FF62C0DAFF5F
:10139000FB0EDF1621EF0AF061C0D9FF62C0DAFF51
:1013A000F70EDF1621EF0AF061C0D9FF62C0DAFF45
:1013B000EF0EDF1621EF0AF061C0D9FF62C0DAFF3D
:1013C000DF0EDF1621EF0AF061C0D9FF62C0DAFF3D
:1013D000BF0EDF1621EF0AF061C0D9FF62C0DAFF4D
:1013E0007F0EDF1621EF0AF06350646E656A655068
:1013F000000AD8B4FEEF09F021EF0AF06450000AA9
:10140000D8B4B4EF09F0010AD8B4BCEF09F0030A6C
:10141000D8B4C4EF09F0010AD8B4CCEF09F0070A38
:10142000D8B4D4EF09F0010AD8B4DCEF09F0030A0C
:10143000D8B4E4EF09F0010AD8B4ECEF09F021EFD9
:101440000AF012006650D8B428EF0AF02AEF0AF02A
:1014500081EF0AF06650D96EDA6A040EDF6433EF6A
:101460000AF035EF0AF067EF0AF081EF0AF06650F4
:10147000D96EDA6ADF50020DF350150FD96EDA6AB1
:10148000DECF61F0DDCF62F06650D96EDA6A010E10
:10149000D926DF50636EA9EC09F081EF0AF066509F
:1014A000D96EDA6ADF50020DF350150FD96EDA6A81
:1014B000DECF61F0DDCF62F06650D96EDA6A010EE0
:1014C000D926DF50636E30EC09F081EF0AF06650E8
:1014D000D96EDA6A020ED926DF50676E686A6850E4
:1014E000000AD8B476EF0AF081EF0AF06750000ADC
:1014F000D8B437EF0AF0010AD8B44FEF0AF081EF01
:101500000AF01200400E656E1FEC0BF00B0E676EBA
:10151000260E666E5E0EE82EFED7662EFCD7672E70
:10152000FAD7400E656E1FEC0BF03A0E656E1FEC9D
:101530000BF00B0E676E260E666E5E0EE82EFED763
:10154000662EFCD7672EFAD73A0E656E1FEC0BF0AD
:101550001200890F8A0F8B0F8C0F8D0F800F810F58
:10156000820F830F840F920F930F940F950F960F96
:10157000020301000000010202010101010000015B
:101580000001010205000204000101020100000047
:071590000102000000000150
:10159800010E5926000E5A225B225C22FE0E5918B3
:1015A8000AE15A2808E15B2806E15C28D8A4DFEFA5
:1015B8000AF0E1EF0AF0E9EF0AF0000E596E000EAA
:1015C8005A6E000E5B6E000E5C6E1200520EF66EC6
:1015D800150EF76E000EF86E00EE01F010EE45F0F5
:1015E8000900F5CFEEFFE550E150FAE100EE46F0D4
:1015F8001B0EEE6AE806FDE1000EF86E00012EEF04
:101608000BF06A50D8A40BEF0BF00DEF0BF00FEFB7
:101618000BF01EEF0BF06AC066F022EC0AF06AC00D
:1016280066F06A50D96EDA6A030ED926DF50676E03
:10163800B7EC08F012006550D8A425EF0BF027EF9F
:101648000BF029EF0BF02DEF0BF065C061F001EC0A
:1016580008F0120038EC0BF0CCEC0AF082EC0AF03F
:1016680030EF0BF000EF00F0400E6A6E05EC0BF067
:0A1678003A0E6A6E05EC0BF012004A
:020000040030CA
:0E000000FF02091EFF8181FF0FC00FE00F40BD
:00000001FF
