:04000000C7EF0AF04C
:1010000000004D50D8A407EF08F009EF08F02BEFCF
:1010100008F0B6EF08F0010E506E5DEF08F0020E1A
:10102000506E5DEF08F0040E506E5DEF08F0080E94
:10103000506E5DEF08F0100E506E5DEF08F0200E60
:10104000506E5DEF08F0400E506E5DEF08F0800EC0
:10105000506E5DEF08F04D50D96EDA6A010ED92658
:10106000DF504E6E4F6A4F50000AD8B43AEF08F086
:10107000B6EF08F04E50000AD8B40BEF08F0010AA2
:10108000D8B40FEF08F0030AD8B413EF08F0010A40
:10109000D8B417EF08F0070AD8B41BEF08F0010A1C
:1010A000D8B41FEF08F0030AD8B423EF08F0010A00
:1010B000D8B427EF08F0B6EF08F04D50D96EDA6AD1
:1010C000DF50020DF350010FD96EDA6ADECF4EF019
:1010D000DDCF4FF04EC0D9FF4FC0DAFF5050DF1ABE
:1010E0004D50D96EDA6ADF50020DF350010FD96E00
:1010F000DA6ADECF4EF0DDCF4FF04EC0D9FF4FC0E1
:10110000DAFFDF5050145018D8A489EF08F08BEFA5
:1011100008F094EF08F04D50D96EDA6A030ED92624
:10112000010EDF6EB6EF08F04D50D96EDA6ADF506F
:10113000020DF350010FD96EDA6ADECF4EF0DDCF2B
:101140004FF04EC0D9FF4FC0DAFFDF5050140009F6
:10115000D8A4ADEF08F0AFEF08F0B6EF08F04D50AF
:10116000D96EDA6A030ED926010EDF6E12005250D4
:10117000D8B4BDEF08F0BFEF08F02FEF09F05250E0
:10118000D96EDA6A050EDF60C8EF08F0CAEF08F022
:101190002FEF09F05304D8B4D0EF08F0D2EF08F0E5
:1011A0001AEF09F05350D8B4D8EF08F0DAEF08F08E
:1011B0001AEF09F02FEF09F05250D96EDA6A030ED8
:1011C000D92653C0DFFF5250D96EDA6ADF50020DC4
:1011D000F350010FD96EDA6ADECF4DF0DDCF4EF05D
:1011E0005250D96EDA6A010ED926DF504F6E30ECBC
:1011F00009F02FEF09F05250D96EDA6A030ED926A2
:1012000053C0DFFF5250D96EDA6ADF50020DF3503F
:10121000010FD96EDA6ADECF4DF0DDCF4EF05250BD
:10122000D96EDA6A010ED926DF504F6EA9EC09F0AB
:101230002FEF09F05350546E556A5550000AD8B438
:1012400024EF09F02FEF09F05450000AD8B4FBEF57
:1012500008F0010AD8B4DCEF08F02FEF09F0120013
:101260004D504E10D8A437EF09F039EF09F07BEF5D
:1012700009F0A8EF09F04DC0D9FF4EC0DAFF000E0B
:10128000DB80A8EF09F04DC0D9FF4EC0DAFF000E99
:10129000DB82A8EF09F04DC0D9FF4EC0DAFF000E87
:1012A000DB84A8EF09F04DC0D9FF4EC0DAFF000E75
:1012B000DB86A8EF09F04DC0D9FF4EC0DAFF000E63
:1012C000DB88A8EF09F04DC0D9FF4EC0DAFF000E51
:1012D000DB8AA8EF09F04DC0D9FF4EC0DAFF000E3F
:1012E000DB8CA8EF09F04DC0D9FF4EC0DAFF000E2D
:1012F000DB8EA8EF09F04F50506E516A5150000A32
:10130000D8B485EF09F0A8EF09F05050000AD8B41E
:101310003BEF09F0010AD8B443EF09F0030AD8B44F
:101320004BEF09F0010AD8B453EF09F0070AD8B41B
:101330005BEF09F0010AD8B463EF09F0030AD8B4EF
:101340006BEF09F0010AD8B473EF09F0A8EF09F0C8
:1013500012004D504E10D8A4B0EF09F0B2EF09F0D2
:10136000F4EF09F021EF0AF04DC0D9FF4EC0DAFFCB
:10137000FE0EDF1621EF0AF04DC0D9FF4EC0DAFF96
:10138000FD0EDF1621EF0AF04DC0D9FF4EC0DAFF87
:10139000FB0EDF1621EF0AF04DC0D9FF4EC0DAFF79
:1013A000F70EDF1621EF0AF04DC0D9FF4EC0DAFF6D
:1013B000EF0EDF1621EF0AF04DC0D9FF4EC0DAFF65
:1013C000DF0EDF1621EF0AF04DC0D9FF4EC0DAFF65
:1013D000BF0EDF1621EF0AF04DC0D9FF4EC0DAFF75
:1013E0007F0EDF1621EF0AF04F50506E516A5150B8
:1013F000000AD8B4FEEF09F021EF0AF05050000ABD
:10140000D8B4B4EF09F0010AD8B4BCEF09F0030A6C
:10141000D8B4C4EF09F0010AD8B4CCEF09F0070A38
:10142000D8B4D4EF09F0010AD8B4DCEF09F0030A0C
:10143000D8B4E4EF09F0010AD8B4ECEF09F021EFD9
:101440000AF012005250D8B428EF0AF02AEF0AF03E
:1014500081EF0AF05250D96EDA6A040EDF6433EF7E
:101460000AF035EF0AF067EF0AF081EF0AF0525008
:10147000D96EDA6ADF50020DF350150FD96EDA6AB1
:10148000DECF4DF0DDCF4EF05250D96EDA6A010E4C
:10149000D926DF504F6EA9EC09F081EF0AF05250C7
:1014A000D96EDA6ADF50020DF350150FD96EDA6A81
:1014B000DECF4DF0DDCF4EF05250D96EDA6A010E1C
:1014C000D926DF504F6E30EC09F081EF0AF0525010
:1014D000D96EDA6A020ED926DF50536E546A545020
:1014E000000AD8B476EF0AF081EF0AF05350000AF0
:1014F000D8B437EF0AF0010AD8B44FEF0AF081EF01
:101500000AF012002C0E516E15EC0BF00B0E536E00
:10151000260E526E5E0EE82EFED7522EFCD7532EAC
:10152000FAD72C0E516E15EC0BF0260E516E15EC01
:101530000BF00B0E536E260E526E5E0EE82EFED78B
:10154000522EFCD7532EFAD7260E516E15EC0BF007
:101550001200010E4526000E462247224822FE0EAA
:1015600045180AE1462808E1472806E14828D8A49A
:10157000BCEF0AF0BEEF0AF0C6EF0AF0000E456EAF
:10158000000E466E000E476E000E486E1200F80EFA
:10159000F66E150EF76E000EF86E00EE01F010EE0E
:1015A00031F00900F5CFEEFFE550E150FAE100EE31
:1015B00032F01B0EEE6AE806FDE1000EF86E000147
:1015C00024EF0BF05650D8A4E8EF0AF0EAEF0AF047
:1015D000ECEF0AF0FBEF0AF056C052F022EC0AF0F2
:1015E00056C052F05650D96EDA6A030ED926DF5033
:1015F000536EB7EC08F01200890F8A0F8B0F8C0F17
:101600008D0F800F810F820F830F840F920F930F26
:10161000940F950F960F00010001010101020100D6
:09162000000001020000000001BD
:10162A005150D8A41BEF0BF01DEF0BF01FEF0BF07E
:10163A0023EF0BF051C04DF001EC08F012002EEC34
:10164A000BF0A9EC0AF082EC0AF026EF0BF000EF9F
:10165A0000F02C0E566EE2EC0AF0260E566EE2EC04
:04166A000AF0120070
:020000040030CA
:0E000000FF02091EFF8181FF0FC00FE00F40BD
:00000001FF
