:04000000F5EF0AF01E
:1010000000002E0E556E000E566E75EC0AF0240E82
:10101000556E000E566E75EC0AF00B0E586E260ECD
:10102000576E5E0EE82EFED7572EFCD7582EFAD7F5
:101030002E0E556E10EC0BF0240E556E10EC0BF0CE
:101040000B0E586E260E576E5E0EE82EFED7572EEC
:10105000FCD7582EFAD72E0E556E010E566E75EC33
:101060000AF0240E556E010E566E75EC0AF00B0E4A
:10107000586E260E576E5E0EE82EFED7572EFCD702
:10108000582EFAD72E0E556E10EC0BF0240E556E1E
:1010900010EC0BF00B0E586E260E576E5E0EE82EFF
:1010A000FED7572EFCD7582EFAD72E0E556E000EAF
:1010B000566E75EC0AF0240E556E010E566E75ECE8
:1010C0000AF00B0E586E260E576E5E0EE82EFED7F7
:1010D000572EFCD7582EFAD72E0E556E10EC0BF06B
:1010E000240E556E10EC0BF00B0E586E260E576E3C
:1010F0005E0EE82EFED7572EFCD7582EFAD72E0EAE
:10110000556E010E566E75EC0AF0240E556E000EEB
:10111000566E75EC0AF00B0E586E260E576E5E0E6C
:10112000E82EFED7572EFCD7582EFAD72E0E556E26
:1011300010EC0BF0240E556E10EC0BF00B0E586EED
:10114000260E576E5E0EE82EFED7572EFCD7582E71
:10115000FAD712005150D8B4B0EF08F0B2EF08F04F
:1011600022EF09F05150D96EDA6A050EDF60BBEF4D
:1011700008F0BDEF08F022EF09F05204D8B4C3EF35
:1011800008F0C5EF08F00DEF09F05250D8B4CBEFDE
:1011900008F0CDEF08F00DEF09F022EF09F0515003
:1011A000D96EDA6A030ED92652C0DFFF5150D96ECC
:1011B000DA6ADF50020DF350010FD96EDA6ADECF22
:1011C0004CF0DDCF4DF05150D96EDA6A010ED926C0
:1011D000DF504E6E23EC09F022EF09F05150D96E2A
:1011E000DA6A030ED92652C0DFFF5150D96EDA6A8F
:1011F000DF50020DF350010FD96EDA6ADECF4CF0EA
:10120000DDCF4DF05150D96EDA6A010ED926DF508C
:101210004E6E9CEC09F022EF09F05250536E546A66
:101220005450000AD8B417EF09F022EF09F05350D8
:10123000000AD8B4EEEF08F0010AD8B4CFEF08F0F6
:1012400022EF09F012004C504D10D8A42AEF09F0FB
:101250002CEF09F06EEF09F09BEF09F04CC0D9FFBD
:101260004DC0DAFF000EDB809BEF09F04CC0D9FFC8
:101270004DC0DAFF000EDB829BEF09F04CC0D9FFB6
:101280004DC0DAFF000EDB849BEF09F04CC0D9FFA4
:101290004DC0DAFF000EDB869BEF09F04CC0D9FF92
:1012A0004DC0DAFF000EDB889BEF09F04CC0D9FF80
:1012B0004DC0DAFF000EDB8A9BEF09F04CC0D9FF6E
:1012C0004DC0DAFF000EDB8C9BEF09F04CC0D9FF5C
:1012D0004DC0DAFF000EDB8E9BEF09F04E504F6ED3
:1012E000506A5050000AD8B478EF09F09BEF09F02B
:1012F0004F50000AD8B42EEF09F0010AD8B436EFE7
:1013000009F0030AD8B43EEF09F0010AD8B446EF59
:1013100009F0070AD8B44EEF09F0010AD8B456EF25
:1013200009F0030AD8B45EEF09F0010AD8B466EFF9
:1013300009F09BEF09F012004C504D10D8A4A3EF18
:1013400009F0A5EF09F0E7EF09F014EF0AF04CC03F
:10135000D9FF4DC0DAFFFE0EDF1614EF0AF04CC0C5
:10136000D9FF4DC0DAFFFD0EDF1614EF0AF04CC0B6
:10137000D9FF4DC0DAFFFB0EDF1614EF0AF04CC0A8
:10138000D9FF4DC0DAFFF70EDF1614EF0AF04CC09C
:10139000D9FF4DC0DAFFEF0EDF1614EF0AF04CC094
:1013A000D9FF4DC0DAFFDF0EDF1614EF0AF04CC094
:1013B000D9FF4DC0DAFFBF0EDF1614EF0AF04CC0A4
:1013C000D9FF4DC0DAFF7F0EDF1614EF0AF04E5042
:1013D0004F6E506A5050000AD8B4F1EF09F014EF84
:1013E0000AF04F50000AD8B4A7EF09F0010AD8B4A8
:1013F000AFEF09F0030AD8B4B7EF09F0010AD8B487
:10140000BFEF09F0070AD8B4C7EF09F0010AD8B452
:10141000CFEF09F0030AD8B4D7EF09F0010AD8B426
:10142000DFEF09F014EF0AF012005150D8B41BEFAF
:101430000AF01DEF0AF074EF0AF05150D96EDA6A23
:10144000040EDF6426EF0AF028EF0AF05AEF0AF0E4
:1014500074EF0AF05150D96EDA6ADF50020DF35082
:10146000150FD96EDA6ADECF4CF0DDCF4DF051505A
:10147000D96EDA6A010ED926DF504E6E9CEC09F067
:1014800074EF0AF05150D96EDA6ADF50020DF35052
:10149000150FD96EDA6ADECF4CF0DDCF4DF051502A
:1014A000D96EDA6A010ED926DF504E6E23EC09F0B0
:1014B00074EF0AF05150D96EDA6A020ED926DF5065
:1014C000526E536A5350000AD8B469EF0AF074EFB1
:1014D0000AF05250000AD8B42AEF0AF0010AD8B430
:1014E00042EF0AF074EF0AF012005550D8A47BEFD7
:1014F0000AF07DEF0AF081EF0AF0ADEF0AF0ADEFF0
:101500000AF05650D8A487EF0AF089EF0AF098EF56
:101510000AF055C051F0010E526EAAEC08F0555079
:10152000050F516E000E526EAAEC08F0ADEF0AF0F6
:101530005604D8A49EEF0AF0A0EF0AF07FEF0AF05D
:1015400055C051F0000E526EAAEC08F05550050F30
:10155000516E010E526EAAEC08F012005550D8A43C
:10156000B4EF0AF0B6EF0AF0B8EF0AF0D8EF0AF0DD
:1015700055C051F015EC0AF055C051F05550D96ED8
:10158000DA6A030ED926DF50526EAAEC08F05550E5
:10159000050F516E15EC0AF05550050F516E555060
:1015A000D96EDA6A080ED926DF50526EAAEC08F01E
:1015B0001200890F8A0F8B0F8C0F8D0F800F810FF8
:1015C000820F830F840F920F930F940F950F960F36
:1015D00000010001010202000000020300000002FD
:0915E000000000000201000000FF
:1015EA00B20EF66E150EF76E000EF86E00EE01F0F2
:1015FA0010EE37F00900F5CFEEFFE550E150FAE1C1
:10160A0000EE38F0140EEE6AE806FDE1000EF86E00
:10161A00000131EF0BF05550D8A416EF0BF018EF7C
:10162A000BF01AEF0BF027EF0BF055C051F0000E3C
:10163A00526EAAEC08F05550050F516E000E526E0C
:10164A00AAEC08F012002E0E556EAEEC0AF0240E2B
:10165A00556EAEEC0AF0120028EC0BF001EC08F023
:08166A0033EF0BF000EF00F07C
:020000040030CA
:0E000000FF02091EFF8181FF0FC00FE00F40BD
:00000001FF
