:040000001BEF0DF0F5
:1010000000005050D8A407EF08F009EF08F02BEFCC
:1010100008F0B6EF08F0010E536E5DEF08F0020E17
:10102000536E5DEF08F0040E536E5DEF08F0080E8E
:10103000536E5DEF08F0100E536E5DEF08F0200E5A
:10104000536E5DEF08F0400E536E5DEF08F0800EBA
:10105000536E5DEF08F05050D96EDA6A010ED92652
:10106000DF50516E526A5250000AD8B43AEF08F07D
:10107000B6EF08F05150000AD8B40BEF08F0010A9F
:10108000D8B40FEF08F0030AD8B413EF08F0010A40
:10109000D8B417EF08F0070AD8B41BEF08F0010A1C
:1010A000D8B41FEF08F0030AD8B423EF08F0010A00
:1010B000D8B427EF08F0B6EF08F05050D96EDA6ACE
:1010C000DF50020DF350010FD96EDA6ADECF51F016
:1010D000DDCF52F051C0D9FF52C0DAFF5350DF1AB2
:1010E0005050D96EDA6ADF50020DF350010FD96EFD
:1010F000DA6ADECF51F0DDCF52F051C0D9FF52C0D5
:10110000DAFFDF5053145318D8A489EF08F08BEF9F
:1011100008F094EF08F05050D96EDA6A030ED92621
:10112000010EDF6EB6EF08F05050D96EDA6ADF506C
:10113000020DF350010FD96EDA6ADECF51F0DDCF28
:1011400052F051C0D9FF52C0DAFFDF5053140009EA
:10115000D8A4ADEF08F0AFEF08F0B6EF08F05050AC
:10116000D96EDA6A030ED926010EDF6E12002A0E3E
:10117000556E340E566E8AEC0BF03450D8A4C3EF83
:1011800008F0C5EF08F0E4EF08F0010E4426000E69
:1011900045224622472247504610451009E1640E79
:1011A000445CD8A0D6EF08F0D8EF08F0EEEF08F0D6
:1011B000640E446E000E456E000E466E000E476EC5
:1011C000010E4E6EEEEF08F0000E446E000E456EFE
:1011D000000E466E000E476E000E4E6E4D50D8A4A7
:1011E000F4EF08F0F6EF08F002EF09F04E04D8A48F
:1011F000FCEF08F0FEEF08F002EF09F0010E4C6E74
:1012000004EF09F0000E4C6E4C04D8A40AEF09F06C
:101210000CEF09F025EF09F04F2A030E4F6413EF8E
:1012200009F015EF09F025EF09F0010E4F6E25EFDB
:1012300009F079EC0DF03EEF09F0DBEC0CF03EEF3D
:1012400009F072EC0DF03EEF09F04F50606E616AEC
:101250006150000AD8B42FEF09F03EEF09F060505A
:10126000010AD8B419EF09F0030AD8B41DEF09F048
:10127000010AD8B421EF09F03EEF09F04EC04DF05D
:1012800012005050D8A447EF09F049EF09F06BEF76
:1012900009F0BEEF09F0010E546E9DEF09F0020E49
:1012A000546E9DEF09F0040E546E9DEF09F0080E88
:1012B000546E9DEF09F0100E546E9DEF09F0200E54
:1012C000546E9DEF09F0400E546E9DEF09F0800EB4
:1012D000546E9DEF09F05050D96EDA6A010ED9268E
:1012E000DF50526E536A5350000AD8B47AEF09F0B7
:1012F000BEEF09F05250000AD8B44BEF09F0010AD2
:10130000D8B44FEF09F0030AD8B453EF09F0010A3B
:10131000D8B457EF09F0070AD8B45BEF09F0010A17
:10132000D8B45FEF09F0030AD8B463EF09F0010AFB
:10133000D8B467EF09F0BEEF09F05150D96EDA6A00
:101340005050E16EE26AE750020DF3500B0FE16E70
:10135000E26AE6CF52F0E5CF53F052C0E1FF53C04E
:10136000E2FFE75054145418D8B4B9EF09F0BCEFB9
:1013700009F0010EBDEF09F0000EDF6E12005550AE
:10138000D8B4C5EF09F0C7EF09F037EF0AF05550B0
:10139000D96EDA6A050EDF60D0EF09F0D2EF09F0FE
:1013A00037EF0AF05604D8B4D8EF09F0DAEF09F0B5
:1013B00022EF0AF05650D8B4E0EF09F0E2EF09F05E
:1013C00022EF0AF037EF0AF05550D96EDA6A030EB1
:1013D000D92656C0DFFF5550D96EDA6ADF50020DAC
:1013E000F350010FD96EDA6ADECF50F0DDCF51F045
:1013F0005550D96EDA6A010ED926DF50526E38EC9C
:101400000AF037EF0AF05550D96EDA6A030ED92682
:1014100056C0DFFF5550D96EDA6ADF50020DF35027
:10142000010FD96EDA6ADECF50F0DDCF51F05550A2
:10143000D96EDA6A010ED926DF50526EB1EC0AF08D
:1014400037EF0AF05650576E586A5850000AD8B411
:101450002CEF0AF037EF0AF05750000AD8B403EF28
:101460000AF0010AD8B4E4EF09F037EF0AF01200ED
:1014700050505110D8A43FEF0AF041EF0AF083EF2B
:101480000AF0B0EF0AF050C0D9FF51C0DAFF000EE9
:10149000DB80B0EF0AF050C0D9FF51C0DAFF000E78
:1014A000DB82B0EF0AF050C0D9FF51C0DAFF000E66
:1014B000DB84B0EF0AF050C0D9FF51C0DAFF000E54
:1014C000DB86B0EF0AF050C0D9FF51C0DAFF000E42
:1014D000DB88B0EF0AF050C0D9FF51C0DAFF000E30
:1014E000DB8AB0EF0AF050C0D9FF51C0DAFF000E1E
:1014F000DB8CB0EF0AF050C0D9FF51C0DAFF000E0C
:10150000DB8EB0EF0AF05250536E546A5450000A0A
:10151000D8B48DEF0AF0B0EF0AF05350000AD8B4F7
:1015200043EF0AF0010AD8B44BEF0AF0030AD8B42B
:1015300053EF0AF0010AD8B45BEF0AF0070AD8B4F7
:1015400063EF0AF0010AD8B46BEF0AF0030AD8B4CB
:1015500073EF0AF0010AD8B47BEF0AF0B0EF0AF09B
:10156000120050505110D8A4B8EF0AF0BAEF0AF0A8
:10157000FCEF0AF029EF0BF050C0D9FF51C0DAFFA1
:10158000FE0EDF1629EF0BF050C0D9FF51C0DAFF75
:10159000FD0EDF1629EF0BF050C0D9FF51C0DAFF66
:1015A000FB0EDF1629EF0BF050C0D9FF51C0DAFF58
:1015B000F70EDF1629EF0BF050C0D9FF51C0DAFF4C
:1015C000EF0EDF1629EF0BF050C0D9FF51C0DAFF44
:1015D000DF0EDF1629EF0BF050C0D9FF51C0DAFF44
:1015E000BF0EDF1629EF0BF050C0D9FF51C0DAFF54
:1015F0007F0EDF1629EF0BF05250536E546A545091
:10160000000AD8B406EF0BF029EF0BF05350000A94
:10161000D8B4BCEF0AF0010AD8B4C4EF0AF0030A48
:10162000D8B4CCEF0AF0010AD8B4D4EF0AF0070A14
:10163000D8B4DCEF0AF0010AD8B4E4EF0AF0030AE8
:10164000D8B4ECEF0AF0010AD8B4F4EF0AF029EFAD
:101650000BF012005550D8B430EF0BF032EF0BF016
:1016600089EF0BF05550D96EDA6A040EDF643BEF58
:101670000BF03DEF0BF06FEF0BF089EF0BF05550D7
:10168000D96EDA6ADF50020DF350150FD96EDA6A9F
:10169000DECF50F0DDCF51F05550D96EDA6A010E31
:1016A000D926DF50526EB1EC0AF089EF0BF055509D
:1016B000D96EDA6ADF50020DF350150FD96EDA6A6F
:1016C000DECF50F0DDCF51F05550D96EDA6A010E01
:1016D000D926DF50526E38EC0AF089EF0BF05550E6
:1016E000D96EDA6A020ED926DF50566E576A575005
:1016F000000AD8B47EEF0BF089EF0BF05650000AC9
:10170000D8B43FEF0BF0010AD8B457EF0BF089EFD4
:101710000BF012005550D8B490EF0BF092EF0BF095
:10172000DBEF0BF05650D8A498EF0BF09AEF0BF0CC
:101730009EEF0BF0DBEF0BF0DBEF0BF05650D96EAA
:10174000DA6A010EDF6E55C050F0580E516E41EC52
:1017500009F05804D8A4AFEF0BF0B1EF0BF0C4EFD1
:101760000BF05550D96EDA6A060ED926DE04D8A4DD
:10177000BCEF0BF0BEEF0BF0C4EF0BF05650D96E80
:10178000DA6ADF6ADBEF0BF05850D8A4CAEF0BF02F
:10179000CCEF0BF09CEF0BF05550D96EDA6A060EC9
:1017A000D926DF50D8A4D7EF0BF0D9EF0BF09CEF80
:1017B0000BF0BEEF0BF0120054505510561057109E
:1017C000D8B4E5EF0BF0E7EF0BF017EF0CF0010EDC
:1017D000586EF1EF0BF0D8905436553656365736D2
:1017E000582A57AEF6EF0BF0F8EF0BF0EBEF0BF0DB
:1017F0005450505C555051585650525857505358A9
:10180000D8A005EF0CF007EF0CF00FEF0CF05450E0
:10181000505E5550515A5650525A5750535AD890BC
:101820005732563255325432582EF8EF0BF050C022
:1018300050F051C051F052C052F053C053F012005A
:101840005950D8A426EF0CF028EF0CF042EF0CF022
:10185000010E5DEF0CF059C055F02AEC0BF05CEF77
:101860000CF059C055F02AEC0BF059C055F0595006
:10187000D96EDA6A030ED926DF50566EBFEC09F036
:101880005CEF0CF05950D96EDA6A020ED926DF509F
:101890005A6E5B6A5B50000AD8B451EF0CF028EF27
:1018A0000CF05A50000AD8B431EF0CF0010AD8B449
:1018B0002BEF0CF028EF0CF0000E12005C50D8A4B7
:1018C00064EF0CF066EF0CF068EF0CF08AEF0CF0B0
:1018D00020EE3FF010EE5DF0040EDBCFE3FFE806F4
:1018E000FCE25C50D96EDA6ADF505D6E5C50D96EF6
:1018F000DA6A010ED926DF505E6E000E5F6E5C5014
:10190000D96EDA6A020ED926DF50606E5D0E596E0E
:1019100020EC0CF012005950D8A491EF0CF093EF8A
:101920000CF095EF0CF0B4EF0CF020EE3AF010EE66
:101930005BF0040EDBCFE3FFE806FCE25950D96E02
:10194000DA6ADF505B6E5950D96EDA6A010ED92619
:10195000DF505C6E000E5D6E5AC05EF05B0E556E21
:101960005AC056F0BFEC09F012005450D8A4BBEF97
:101970000CF0BDEF0CF0BFEF0CF0DAEF0CF020EE46
:1019800035F010EE55F0040EDBCFE3FFE806FCE285
:101990005450D96EDA6ADF50556E5450D96EDA6AF7
:1019A000010ED926DF50566E000E576E550E506E42
:1019B00001EC08F0120048C050F049C051F04AC094
:1019C00052F04BC053F0640E546E000E556E000E74
:1019D000566E000E576EDCEC0BF05050511052104A
:1019E0005310D8A4F6EF0CF0F8EF0CF0FCEF0CF06D
:1019F000310E546EB5EC0CF01200010E4826000EAC
:101A000049224A224B22FE0E48180AE1492808E1E1
:101A10004A2806E14B28D8A410EF0DF012EF0DF084
:101A20001AEF0DF0000E486E000E496E000E4A6E61
:101A3000000E4B6E12006C0EF66E1A0EF76E000E54
:101A4000F86E00EE01F010EE34F00900F5CFEEFF75
:101A5000E550E150FAE100EE35F01B0EEE6AE806C3
:101A6000FDE1000EF86E00015FEF0DF0890F8A0FA7
:101A70008B0F8C0F8D0F800F810F820F830F840FC0
:101A8000920F930F940F950F960F02010100000023
:101A90000102030001020001010101000202000134
:101AA0005850D8A456EF0DF058EF0DF05AEF0DF046
:101AB0005EEF0DF058C055F02AEC0BF0120069EC07
:101AC0000DF0FDEC0CF0B7EC08F061EF0DF000EF5D
:101AD00000F02A0E586E50EC0DF0310E5C6E5EEC8C
:101AE0000CF01200310E596E000E5A6E8BEC0CF099
:101AF0001200310E596E010E5A6E8BEC0CF0120072
:020000040030CA
:0E000000FF02091EFF8181FF0FC00FE00F40BD
:00000001FF
