:04000000B6EF0EF059
:101000000020202020202020202020202020202000
:1010100020005F494E495449414C495A4154494F77
:101020004E5F005F574F524C445F005F48454C4C49
:101030004F5F00256900257500000C50D96EDA6AF3
:10104000DFCFF6FF100EF76E0800F550250AD8A482
:101050002CEF08F02EEF08F076EF09F00C50D96E67
:10106000DA6ADF2A000E706E000E6F6E6FC073F0CA
:10107000716872680C50D96EDA6ADF50116E11C057
:10108000F6FF100EF76E0800F550640AD8B44BEF67
:1010900008F04DEF08F05BEF08F011C0F6FF100EFE
:1010A000F76E0800F550690AD8A459EF08F05BEF15
:1010B00008F0E7EF08F00D50D96EDA6A020EDF266D
:1010C000DF5CD96EDA6ADECF12F0DECF13F00C509F
:1010D000D96EDA6A1128DF6E200E166E13BE73EF1A
:1010E00008F076EF08F0010E77EF08F0000E106EB2
:1010F0001606C20E1624D96EDA6A010EDA2212C062
:1011000001F013C002F0000E046E0A0E036EC3EC71
:101110000DF001C007F002C008F05BEC10F00750C2
:10112000300FDF6E12C001F013C002F0000E046E2B
:101130000A0E036E8AEC0BF001C012F002C013F02D
:1011400012501310D8B4A7EF08F0A9EF08F0B1EFD0
:1011500008F01650D8A4AFEF08F0B1EF08F078EF20
:1011600008F01650D8B4B7EF08F0B9EF08F0DCEF8C
:1011700008F01050D8B4BFEF08F0C1EF08F0DCEF72
:1011800008F01606C20E1624D96EDA6A010EDA22AB
:101190002D0EDF6EDCEF08F0C20E1624D96EDA6A6F
:1011A000010EDA22DF500E6E0E50016E026A0BC085
:1011B00003F01BEC0EF0162A200E1618D8A4E3EF4D
:1011C00008F0E5EF08F0CCEF08F087EF09F011C068
:1011D000F6FF100EF76E0800F550750AD8A4F3EF6D
:1011E00008F0F5EF08F070EF09F00D50D96EDA6AEB
:1011F000020EDF26DF5CD96EDA6ADECF12F0DECFB8
:1012000013F00C50D96EDA6A1128DF6E5AEF09F02C
:10121000200E166E1606C20E1624D96EDA6A010E5C
:10122000DA2212C001F013C002F0000E046E0A0EA2
:10123000036E9FEC0FF00150300FDF6E12C001F013
:1012400013C002F0000E046E0A0E036E32EC0FF0B3
:1012500001C012F002C013F012501310D8B433EFD3
:1012600009F035EF09F04FEF09F01650D8A43BEF25
:1012700009F03DEF09F00AEF09F04FEF09F0C20E57
:101280001624D96EDA6A010EDA22DF500E6E0E5085
:10129000016E026A0BC003F01BEC0EF0162A200E42
:1012A0001618D8A456EF09F058EF09F03FEF09F0EF
:1012B00087EF09F011C0F6FF100EF76E0800F55029
:1012C0000E6E0F6A0F50000AD8B469EF09F070EF84
:1012D00009F00E50750AD8B408EF09F070EF09F064
:1012E0000C50D96EDA6ADF2A87EF09F00C50D96EFC
:1012F000DA6ADFCFF6FF100EF76E0800F550016EC8
:10130000026A0BC003F01BEC0EF070EF09F0120044
:101310000D50D8A48EEF09F090EF09F092EF09F08C
:101320001EEF0AF00DC006F04DEC0CF00DC006F0FB
:101330000D50D96EDA6A030ED926DF50076E1FEC06
:101340000AF00D50050F066E4DEC0CF00D50050F18
:10135000066E0D50D96EDA6A080ED926DF50076E78
:101360001FEC0AF0000E0F6E0F50050D0D50F32408
:101370000A0F066E4DEC0CF00F50050D0D50F324C6
:101380000A0F066E0F50050D0D50F324D96EDA6A60
:101390000D0ED926DF50076E1FEC0AF00F2A070E3C
:1013A0000F64D5EF09F0D7EF09F0B4EF09F0340E70
:1013B0000E6EF20EE82EFED70E2EFCD70DC00BF0EF
:1013C000380E0C6E0CEC0DF00D0E0E6EFC0EE82EB1
:1013D000FED70E2EFCD70DC00BF0380E0C6E0CECA9
:1013E0000DF0640EE82EFED70DC00BF0380E0C6E1B
:1013F0000CEC0DF00DC00BF0010E0C6E0CEC0DF0B2
:101400000DC00BF0020E0C6E0CEC0DF00DC00BF0CD
:10141000060E0C6E0CEC0DF00DC00BF00C0E0C6EED
:101420000CEC0DF00DC00BF0380E0C6E0CEC0DF04A
:101430000DC00BF0800E0C6E0CEC0DF0120006507F
:10144000D8B425EF0AF027EF0AF097EF0AF006501C
:10145000D96EDA6A050EDF6030EF0AF032EF0AF07B
:1014600097EF0AF00704D8B438EF0AF03AEF0AF021
:1014700082EF0AF00750D8B440EF0AF042EF0AF0CA
:1014800082EF0AF097EF0AF00650D96EDA6A030E7F
:10149000D92607C0DFFF0650D96EDA6ADF50020D89
:1014A000F350360FD96EDA6ADECF01F0DDCF02F0ED
:1014B0000650D96EDA6A010ED926DF50036E98EC19
:1014C0000AF097EF0AF00650D96EDA6A030ED926B1
:1014D00007C0DFFF0650D96EDA6ADF50020DF35005
:1014E000360FD96EDA6ADECF01F0DDCF02F006509A
:1014F000D96EDA6A010ED926DF50036E11EC0BF0BB
:1015000097EF0AF00750086E096A0950000AD8B42C
:101510008CEF0AF097EF0AF00850000AD8B463EF96
:101520000AF0010AD8B444EF0AF097EF0AF012006B
:1015300001500210D8A49FEF0AF0A1EF0AF0E3EFE8
:101540000AF010EF0BF001C0D9FF02C0DAFF000E65
:10155000DB8010EF0BF001C0D9FF02C0DAFF000EF4
:10156000DB8210EF0BF001C0D9FF02C0DAFF000EE2
:10157000DB8410EF0BF001C0D9FF02C0DAFF000ED0
:10158000DB8610EF0BF001C0D9FF02C0DAFF000EBE
:10159000DB8810EF0BF001C0D9FF02C0DAFF000EAC
:1015A000DB8A10EF0BF001C0D9FF02C0DAFF000E9A
:1015B000DB8C10EF0BF001C0D9FF02C0DAFF000E88
:1015C000DB8E10EF0BF00350046E056A0550000A25
:1015D000D8B4EDEF0AF010EF0BF00450000AD8B4C5
:1015E000A3EF0AF0010AD8B4ABEF0AF0030AD8B4AB
:1015F000B3EF0AF0010AD8B4BBEF0AF0070AD8B477
:10160000C3EF0AF0010AD8B4CBEF0AF0030AD8B44A
:10161000D3EF0AF0010AD8B4DBEF0AF010EF0BF0B9
:10162000120001500210D8A418EF0BF01AEF0BF0C3
:101630005CEF0BF089EF0BF001C0D9FF02C0DAFFBD
:10164000FE0EDF1689EF0BF001C0D9FF02C0DAFFF2
:10165000FD0EDF1689EF0BF001C0D9FF02C0DAFFE3
:10166000FB0EDF1689EF0BF001C0D9FF02C0DAFFD5
:10167000F70EDF1689EF0BF001C0D9FF02C0DAFFC9
:10168000EF0EDF1689EF0BF001C0D9FF02C0DAFFC1
:10169000DF0EDF1689EF0BF001C0D9FF02C0DAFFC1
:1016A000BF0EDF1689EF0BF001C0D9FF02C0DAFFD1
:1016B0007F0EDF1689EF0BF00350046E056A0550AC
:1016C000000AD8B466EF0BF089EF0BF00450000A63
:1016D000D8B41CEF0BF0010AD8B424EF0BF0030AC6
:1016E000D8B42CEF0BF0010AD8B434EF0BF0070A92
:1016F000D8B43CEF0BF0010AD8B444EF0BF0030A66
:10170000D8B44CEF0BF0010AD8B454EF0BF089EFCA
:101710000BF01200000E066E04BE93EF0BF091EF7B
:101720000BF099EF0BF0036C041ED8B0042A010EE5
:10173000066E02BEA0EF0BF09EEF0BF0A6EF0BF0D3
:10174000016C021ED8B0022A010E061A000E086EA5
:10175000000E076E03500410D8B4B1EF0BF0B3EFD6
:101760000BF0DBEF0BF0010E056EBBEF0BF0D8902A
:1017700003360436052A04AEC0EF0BF0C2EF0BF0BF
:10178000B7EF0BF0D890073608360350015C0450D1
:101790000258D8A0CEEF0BF0D0EF0BF0D5EF0BF046
:1017A0000350015E0450025A0780D890043203327D
:1017B000052EC2EF0BF00650D8B4E1EF0BF0E3EFCB
:1017C0000BF0E7EF0BF0076C081ED8B0082A07C033
:1017D00001F008C002F012006C6F6164696E672E40
:1017E0002E2E2E2E2E2E2E2E2E006C6F6164696EE4
:1017F000672E2E2E2E2E2E2E2E2020006C6F616432
:10180000696E672E2E2E2E2E2E20202020006C6F2B
:101810006164696E672E2E2E2E202020202020004D
:101820006C6F6164696E672E2E202020202020209E
:1018300020006C6F6164696E6720202020202020CA
:101840002020200020504C45415345205741495409
:10185000203D292020002020202020202020202082
:101860002020202020200020202020202020202098
:101870002020202020202000202020202020202088
:101880002020202020202020002020202020202078
:10189000202020202020202020000650D8B453EF04
:1018A0000CF055EF0CF0ACEF0CF00650D96EDA6A84
:1018B000040EDF645EEF0CF060EF0CF092EF0CF0C2
:1018C000ACEF0CF00650D96EDA6ADF50020DF3501F
:1018D0004A0FD96EDA6ADECF01F0DDCF02F0065092
:1018E000D96EDA6A010ED926DF50036E11EC0BF0C7
:1018F000ACEF0CF00650D96EDA6ADF50020DF350EF
:101900004A0FD96EDA6ADECF01F0DDCF02F0065061
:10191000D96EDA6A010ED926DF50036E98EC0AF010
:10192000ACEF0CF00650D96EDA6A020ED926DF5001
:10193000076E086A0850000AD8B4A1EF0CF0ACEFAB
:101940000CF00750000AD8B462EF0CF0010AD8B4CA
:101950007AEF0CF0ACEF0CF012000B50D8A4B3EF00
:101960000CF0B5EF0CF0B7EF0CF00BEF0DF00BC077
:1019700006F0010E076E1FEC0AF00B500A0F066E00
:101980000C50010B076E1FEC0AF00B500F0F066E88
:10199000D8900C30010B076E1FEC0AF00B50140F9F
:1019A000066E0C40E8423F0B010B076E1FEC0AF07D
:1019B0000B50190F066E0C38E8461F0B010B076E13
:1019C0001FEC0AF00B501E0F066E0C380F0B010BAC
:1019D000076E1FEC0AF00B50230F066E0C38E8421E
:1019E000070B010B076E1FEC0AF00B50280F066E59
:1019F0000C44E846030B010B076E1FEC0AF00B507A
:101A00002D0F066E0C44010B076E1FEC0AF00BC085
:101A10000AF0B9EC10F012000B50D8A412EF0DF040
:101A200014EF0DF016EF0DF06AEF0DF00BC006F09D
:101A3000000E076E1FEC0AF00B500A0F066E0C50DA
:101A4000010B076E1FEC0AF00B500F0F066ED890BB
:101A50000C30010B076E1FEC0AF00B50140F066ED2
:101A60000C40E8423F0B010B076E1FEC0AF00B50D5
:101A7000190F066E0C38E8461F0B010B076E1FECA2
:101A80000AF00B501E0F066E0C380F0B010B076E81
:101A90001FEC0AF00B50230F066E0C38E842070BC0
:101AA000010B076E1FEC0AF00B50280F066E0C445A
:101AB000E846030B010B076E1FEC0AF00B502D0FCD
:101AC000066E0C44010B076E1FEC0AF00BC00AF007
:101AD000B9EC10F01200CCEC10F0000E356E310EA7
:101AE0002E6E355001EC10F0C30E126E010E136E07
:101AF000010E146E310E156E166A70EC0EF0C30EE8
:101B0000166E020E176E010E186E540E196E000E30
:101B10001A6E6CEC0FF0352A820E306EDE0EE82E57
:101B2000FED7302EFCD7310E016E000E036E000E74
:101B3000026E000E056E040E046E8EEC10F0310E77
:101B4000016E000E036E200E026E000E056E030E77
:101B5000046E8EEC10F0C30E126E010E136E010EA9
:101B6000146E310E156E166A70EC0EF0F50E351807
:101B7000D8A4BDEF0DF0BFEF0DF06FEF0DF06DEFDE
:101B80000DF000EF00F0000E066E02BECCEF0DF07F
:101B9000CAEF0DF0D2EF0DF0016C021ED8B0022A90
:101BA000010E066E04BED9EF0DF0D7EF0DF0DDEF9C
:101BB0000DF0036C041ED8B0042A03500410D8B4EE
:101BC000E4EF0DF0E6EF0DF00AEF0EF0010E056EFA
:101BD000EEEF0DF0D89003360436052A04AEF3EF8D
:101BE0000DF0F5EF0DF0EAEF0DF00350015C04503D
:101BF0000258D8A0FEEF0DF000EF0EF004EF0EF04B
:101C00000350015E0450025AD89004320332052E6C
:101C1000F5EF0DF00650D8B410EF0EF012EF0EF005
:101C200016EF0EF0016C021ED8B0022A01C001F0BE
:101C300002C002F012000350D8B421EF0EF023EFDF
:101C40000EF02BEF0EF00350D8A429EF0EF02BEF7F
:101C50000EF030EF0EF00150D1EC10F06FEF0EF0FF
:101C60000350D96EDA6A0A0ED926DE50DE10D8B4D7
:101C70003CEF0EF03EEF0EF057EF0EF00350D96E32
:101C8000DA6A0A0ED9260350E16EE26A030EE126F3
:101C9000DE50E65CE650800A086EDE50800A085886
:101CA000D8B055EF0EF057EF0EF06FEF0EF0035077
:101CB000D96EDA6A030ED926DF50046E0350D96E4E
:101CC000DA6ADF500424D96EDA6A01C0DFFF0350FC
:101CD000D96EDA6A030ED926DE2A000EDD22120042
:101CE0001250D8A476EF0EF078EF0EF07AEF0EF0E7
:101CF000B5EF0EF012C00DF013C00EF014C00FF0CF
:101D0000D1EC0FF09CEF0EF012C00BF015C0F6FFF7
:101D100016C0F7FF000EF86E0F0EF76403D0080030
:101D2000F55005D0F6CFE9FFF7CFEAFFEF500C6E84
:101D3000ADEC0CF0154A162A15C0F6FF16C0F7FFD9
:101D4000000EF86E0F0EF76403D00800F55005D0B2
:101D5000F6CFE9FFF7CFEAFFEF500009D8A4B3EFC1
:101D60000EF0B5EF0EF084EF0EF01200D80EF66E06
:101D7000170EF76E000EF86E01EE00F010EEC2F0D6
:101D80000900F5CFEEFFE550E150FAE1EE0EF66EF8
:101D90001D0EF76E000EF86E00EE80F010EE75F07E
:101DA0000900F5CFEEFFE550E150FAE14C0EF66E7A
:101DB000210EF76E000EF86E00EE36F010EE26F0F3
:101DC0000900F5CFEEFFE550E150FAE101EEC2F077
:101DD000200EEE6AE806FDE100EE5CF0180EEE6AF9
:101DE000E806FDE1000EF86E00016BEF0DF020201B
:101DF0002020202020202020202020202020002003
:101E000020202020202020202020202020202000F2
:101E100020202020202020202020202020202020C2
:101E2000003132334134353642373839432A302392
:101E3000440206000000020700000003000000004A
:101E40000301000000030200000003030000000380
:101E50000400000003050000000306000000030763
:031E60000000007F
:101E6400000E066E000E056E03500410D8B43DEF4C
:101E74000FF03FEF0FF067EF0FF0010E076E47EF23
:101E84000FF0D89003360436072A04AE4CEF0FF057
:101E94004EEF0FF043EF0FF0D8900536063603509F
:101EA400015C04500258D8A05AEF0FF05CEF0FF019
:101EB40061EF0FF00350015E0450025A0580D89080
:101EC40004320332072E4EEF0FF005C001F006C0B6
:101ED40002F012001650D8A472EF0FF074EF0FF056
:101EE40076EF0FF09EEF0FF016C00BF01A50080DAE
:101EF400F350400F0C6E0CEC0DF0000E1B6E16C070
:101F04000BF019501B24D96EDA6ADF500C6EADEC5D
:101F14000CF01B2A070E1B6492EF0FF094EF0FF0E6
:101F240081EF0FF016C012F017C013F018C014F0B0
:101F34001AC015F075EC10F0120003500410D8B458
:101F4400A6EF0FF0A8EF0FF0CCEF0FF0010E056E27
:101F5400B0EF0FF0D89003360436052A04AEB5EF7F
:101F64000FF0B7EF0FF0ACEF0FF00350015C04502B
:101F74000258D8A0C0EF0FF0C2EF0FF0C6EF0FF079
:101F84000350015E0450025AD89004320332052EE5
:101F9400B7EF0FF001C001F002C002F012000DC053
:101FA4000BF0800E0C6E0CEC0DF0EBEF0FF00DC08F
:101FB4000BF00F507F0F0C6E0CEC0DF000EF10F0D7
:101FC4000DC00BF00F50BF0F0C6E0CEC0DF000EFBA
:101FD40010F00E50106E116A1150000AD8B4F5EFCB
:101FE4000FF000EF10F01050010AD8B4D9EF0FF041
:101FF400030AD8B4E2EF0FF000EF10F012002F6ED6
:102004002E50D8A408EF10F00AEF10F00CEF10F0E7
:1020140021EF10F02EC001F0000E036E000E026ED0
:10202400000E056E040E046E8EEC10F02EC01BF034
:10203400330E1C6E2FC01DF01E6A41EC10F012000E
:1020440018C01AF02EEF10F017C00BF01A0E0C6E19
:1020540019C00DF01DEC08F01AC0F6FF100EF76E53
:102064000800F5500009D8A43AEF10F03CEF10F046
:1020740026EF10F0000E186E000E176E12001D0EE3
:10208400216E1BC022F0000E266E000E256E000E7F
:102094002D6E000E2C6E220E176E1CC018F0210E31
:1020A400196E22EC10F01B502524D96EDA6ADF6A0F
:1020B400120008BE60EF10F062EF10F068EF10F04D
:1020C40007C007F008C008F074EF10F007C009F06B
:1020D40008C00AF0091E0A1E094A0A2A09C007F0A4
:1020E4000AC008F012001250D8A47BEF10F07DEF64
:1020F40010F07FEF10F08DEF10F012C00DF013C050
:102104000EF014C00FF0D1EC0FF012C00BF015C09C
:102114000CF0ADEC0CF0120001C006F098EF10F0DA
:102124000650D96EDA6A02C0DFFF062A0406D8A078
:102134000506042806E10528D8A4A3EF10F0A5EFAE
:1021440010F092EF10F01200890F8A0F8B0F8C0F92
:102154008D0F800F810F820F830F840F920F930FC7
:10216400940F950F960F000A0A0A001F110E0A50C9
:10217400050F066E010E076E1FEC0AF0060EE82E20
:10218400FED700D00A50050F066E000E076E1FEC36
:102194000AF01200C30E0D6E88EC09F01200120052
:020000040030CA
:0E000000FF02091EFF8181FF0FC00FE00F40BD
:00000001FF
