:0400000085EF0BF08D
:1010000000004A50D8A407EF08F009EF08F02BEFD2
:1010100008F07EEF08F0010E4E6E5DEF08F0020E54
:101020004E6E5DEF08F0040E4E6E5DEF08F0080E98
:101030004E6E5DEF08F0100E4E6E5DEF08F0200E64
:101040004E6E5DEF08F0400E4E6E5DEF08F0800EC4
:101050004E6E5DEF08F04A50D96EDA6A010ED9265D
:10106000DF504C6E4D6A4D50000AD8B43AEF08F08C
:101070007EEF08F04C50000AD8B40BEF08F0010ADC
:10108000D8B40FEF08F0030AD8B413EF08F0010A40
:10109000D8B417EF08F0070AD8B41BEF08F0010A1C
:1010A000D8B41FEF08F0030AD8B423EF08F0010A00
:1010B000D8B427EF08F07EEF08F04B50D96EDA6A0B
:1010C0004A50E16EE26AE750020DF3500B0FE16EF9
:1010D000E26AE6CF4CF0E5CF4DF04CC0E1FF4DC0E9
:1010E000E2FFE7504E144E18D8B479EF08F07CEFC9
:1010F00008F0010E7DEF08F0000EDF6E12004F5079
:10110000D8B485EF08F087EF08F0F7EF08F04F50FC
:10111000D96EDA6A050EDF6090EF08F092EF08F002
:10112000F7EF08F05004D8B498EF08F09AEF08F001
:10113000E2EF08F05050D8B4A0EF08F0A2EF08F0AA
:10114000E2EF08F0F7EF08F04F50D96EDA6A030EBD
:10115000D92650C0DFFF4F50D96EDA6ADF50020D3A
:10116000F350010FD96EDA6ADECF4AF0DDCF4BF0D3
:101170004F50D96EDA6A010ED926DF504C6EF8EC6A
:1011800008F0F7EF08F04F50D96EDA6A030ED9264F
:1011900050C0DFFF4F50D96EDA6ADF50020DF350B6
:1011A000010FD96EDA6ADECF4AF0DDCF4BF04F5037
:1011B000D96EDA6A010ED926DF504C6E71EC09F057
:1011C000F7EF08F05050516E526A5250000AD8B4EE
:1011D000ECEF08F0F7EF08F05150000AD8B4C3EF75
:1011E00008F0010AD8B4A4EF08F0F7EF08F01200F5
:1011F0004A504B10D8A4FFEF08F001EF09F043EF7D
:1012000009F070EF09F04AC0D9FF4BC0DAFF000EB9
:10121000DB8070EF09F04AC0D9FF4BC0DAFF000E47
:10122000DB8270EF09F04AC0D9FF4BC0DAFF000E35
:10123000DB8470EF09F04AC0D9FF4BC0DAFF000E23
:10124000DB8670EF09F04AC0D9FF4BC0DAFF000E11
:10125000DB8870EF09F04AC0D9FF4BC0DAFF000EFF
:10126000DB8A70EF09F04AC0D9FF4BC0DAFF000EED
:10127000DB8C70EF09F04AC0D9FF4BC0DAFF000EDB
:10128000DB8E70EF09F04C504D6E4E6A4E50000AE6
:10129000D8B44DEF09F070EF09F04D50000AD8B402
:1012A00003EF09F0010AD8B40BEF09F0030AD8B430
:1012B00013EF09F0010AD8B41BEF09F0070AD8B4FC
:1012C00023EF09F0010AD8B42BEF09F0030AD8B4D0
:1012D00033EF09F0010AD8B43BEF09F070EF09F0E1
:1012E00012004A504B10D8A478EF09F07AEF09F0B9
:1012F000BCEF09F0E9EF09F04AC0D9FF4BC0DAFFB3
:10130000FE0EDF16E9EF09F04AC0D9FF4BC0DAFF45
:10131000FD0EDF16E9EF09F04AC0D9FF4BC0DAFF36
:10132000FB0EDF16E9EF09F04AC0D9FF4BC0DAFF28
:10133000F70EDF16E9EF09F04AC0D9FF4BC0DAFF1C
:10134000EF0EDF16E9EF09F04AC0D9FF4BC0DAFF14
:10135000DF0EDF16E9EF09F04AC0D9FF4BC0DAFF14
:10136000BF0EDF16E9EF09F04AC0D9FF4BC0DAFF24
:101370007F0EDF16E9EF09F04C504D6E4E6A4E506D
:10138000000AD8B4C6EF09F0E9EF09F04D50000AA1
:10139000D8B47CEF09F0010AD8B484EF09F0030A4D
:1013A000D8B48CEF09F0010AD8B494EF09F0070A19
:1013B000D8B49CEF09F0010AD8B4A4EF09F0030AED
:1013C000D8B4ACEF09F0010AD8B4B4EF09F0E9EFF2
:1013D00009F012004F50D8B4F0EF09F0F2EF09F025
:1013E00049EF0AF04F50D96EDA6A040EDF64FBEF62
:1013F00009F0FDEF09F02FEF0AF049EF0AF04F5026
:10140000D96EDA6ADF50020DF350150FD96EDA6A21
:10141000DECF4AF0DDCF4BF04F50D96EDA6A010EC5
:10142000D926DF504C6E71EC09F049EF0AF04F50AD
:10143000D96EDA6ADF50020DF350150FD96EDA6AF1
:10144000DECF4AF0DDCF4BF04F50D96EDA6A010E95
:10145000D926DF504C6EF8EC08F049EF0AF04F50F7
:10146000D96EDA6A020ED926DF50506E516A515099
:10147000000AD8B43EEF0AF049EF0AF05050000AD3
:10148000D8B4FFEF09F0010AD8B417EF0AF049EF1A
:101490000AF01200BAEC0BF0270E4F6E340E506EAD
:1014A0009EEC0AF03450D8A458EF0AF05AEF0AF034
:1014B0007AEF0AF0010E4426000E4522462247220A
:1014C000475046100BE1F40E445C010E4558D8A07D
:1014D0006CEF0AF06EEF0AF084EF0AF0F40E446E3F
:1014E000010E456E000E466E000E476E010E486EF0
:1014F00084EF0AF0000E446E000E456E000E466E3C
:10150000000E476E000E486E4804D8A48AEF0AF019
:101510008CEF0AF094EF0AF0310E536E010E546E08
:101520005BEC0BF04CEF0AF0310E536E000E546E74
:101530005BEC0BF04CEF0AF000EF00F04F50D8B42A
:10154000A4EF0AF0A6EF0AF0EFEF0AF05050D8A48B
:10155000ACEF0AF0AEEF0AF0B2EF0AF0EFEF0AF0EC
:10156000EFEF0AF05050D96EDA6A010EDF6E4FC00D
:101570004AF0520E4B6E01EC08F05204D8A4C3EFAF
:101580000AF0C5EF0AF0D8EF0AF04F50D96EDA6AC8
:10159000060ED926DE04D8A4D0EF0AF0D2EF0AF066
:1015A000D8EF0AF05050D96EDA6ADF6AEFEF0AF02E
:1015B0005250D8A4DEEF0AF0E0EF0AF0B0EF0AF0E4
:1015C0004F50D96EDA6A060ED926DF50D8A4EBEF59
:1015D0000AF0EDEF0AF0B0EF0AF0D2EF0AF01200D5
:1015E0005350D8A4F6EF0AF0F8EF0AF012EF0BF020
:1015F000010E2DEF0BF053C04FF0EAEC09F02CEF89
:101600000BF053C04FF0EAEC09F053C04FF05350C9
:10161000D96EDA6A030ED926DF50506E7FEC08F0DF
:101620002CEF0BF05350D96EDA6A020ED926DF5038
:10163000546E556A5550000AD8B421EF0BF0F8EFFC
:101640000AF05450000AD8B401EF0BF0010AD8B4E4
:10165000FBEF0AF0F8EF0AF0000E12005650D8A483
:1016600034EF0BF036EF0BF038EF0BF05AEF0BF0D6
:1016700020EE3FF010EE57F0040EDBCFE3FFE8065C
:10168000FCE25650D96EDA6ADF50576E5650D96E6A
:10169000DA6A010ED926DF50586E000E596E565088
:1016A000D96EDA6A020ED926DF505A6E570E536E83
:1016B000F0EC0AF012005350D8A461EF0BF063EF86
:1016C0000BF065EF0BF084EF0BF020EE3AF010EE2C
:1016D00055F0040EDBCFE3FFE806FCE25350D96E71
:1016E000DA6ADF50556E5350D96EDA6A010ED92688
:1016F000DF50566E000E576E54C058F0550E4F6EA8
:1017000054C050F07FEC08F01200400EF66E170E39
:10171000F76E000EF86E00EE01F010EE34F00900E6
:10172000F5CFEEFFE550E150FAE100EE35F0150E91
:10173000EE6AE806FDE1000EF86E00014AEF0AF0DD
:10174000890F8A0F8B0F8C0F8D0F800F810F820FE7
:10175000830F840F920F930F940F950F960F010232
:10176000010100000001020001010101000203006B
:1017700002020001270E526ECBEC0BF0200E526ECF
:10178000CBEC0BF0310E566E2EEC0BF02E0E566E8F
:101790002EEC0BF012005250D8A4D1EF0BF0D3EF87
:1017A0000BF0D5EF0BF0D9EF0BF052C04FF0EAEC95
:0417B00009F012002A
:020000040030CA
:0E000000FF02091EFF8181FF0FC00FE00F40BD
:00000001FF
