:0400000027EF0BF0EB
:1010000000004950D8A407EF08F009EF08F02BEFD3
:1010100008F07EEF08F0010E4D6E5DEF08F0020E55
:101020004D6E5DEF08F0040E4D6E5DEF08F0080E9A
:101030004D6E5DEF08F0100E4D6E5DEF08F0200E66
:101040004D6E5DEF08F0400E4D6E5DEF08F0800EC6
:101050004D6E5DEF08F04950D96EDA6A010ED9265F
:10106000DF504B6E4C6A4C50000AD8B43AEF08F08F
:101070007EEF08F04B50000AD8B40BEF08F0010ADD
:10108000D8B40FEF08F0030AD8B413EF08F0010A40
:10109000D8B417EF08F0070AD8B41BEF08F0010A1C
:1010A000D8B41FEF08F0030AD8B423EF08F0010A00
:1010B000D8B427EF08F07EEF08F04A50D96EDA6A0C
:1010C0004950E16EE26AE750020DF3501B0FE16EEA
:1010D000E26AE6CF4BF0E5CF4CF04BC0E1FF4CC0ED
:1010E000E2FFE7504D144D18D8B479EF08F07CEFCB
:1010F00008F0010E7DEF08F0000EDF6E12004E507A
:10110000D8B485EF08F087EF08F0F7EF08F04E50FD
:10111000D96EDA6A050EDF6090EF08F092EF08F002
:10112000F7EF08F04F04D8B498EF08F09AEF08F002
:10113000E2EF08F04F50D8B4A0EF08F0A2EF08F0AB
:10114000E2EF08F0F7EF08F04E50D96EDA6A030EBE
:10115000D9264FC0DFFF4E50D96EDA6ADF50020D3C
:10116000F350110FD96EDA6ADECF49F0DDCF4AF0C5
:101170004E50D96EDA6A010ED926DF504B6EF8EC6C
:1011800008F0F7EF08F04E50D96EDA6A030ED92650
:101190004FC0DFFF4E50D96EDA6ADF50020DF350B8
:1011A000110FD96EDA6ADECF49F0DDCF4AF04E502A
:1011B000D96EDA6A010ED926DF504B6E71EC09F058
:1011C000F7EF08F04F50506E516A5150000AD8B4F2
:1011D000ECEF08F0F7EF08F05050000AD8B4C3EF76
:1011E00008F0010AD8B4A4EF08F0F7EF08F01200F5
:1011F00049504A10D8A4FFEF08F001EF09F043EF7F
:1012000009F070EF09F049C0D9FF4AC0DAFF000EBB
:10121000DB8070EF09F049C0D9FF4AC0DAFF000E49
:10122000DB8270EF09F049C0D9FF4AC0DAFF000E37
:10123000DB8470EF09F049C0D9FF4AC0DAFF000E25
:10124000DB8670EF09F049C0D9FF4AC0DAFF000E13
:10125000DB8870EF09F049C0D9FF4AC0DAFF000E01
:10126000DB8A70EF09F049C0D9FF4AC0DAFF000EEF
:10127000DB8C70EF09F049C0D9FF4AC0DAFF000EDD
:10128000DB8E70EF09F04B504C6E4D6A4D50000AEA
:10129000D8B44DEF09F070EF09F04C50000AD8B403
:1012A00003EF09F0010AD8B40BEF09F0030AD8B430
:1012B00013EF09F0010AD8B41BEF09F0070AD8B4FC
:1012C00023EF09F0010AD8B42BEF09F0030AD8B4D0
:1012D00033EF09F0010AD8B43BEF09F070EF09F0E1
:1012E000120049504A10D8A478EF09F07AEF09F0BB
:1012F000BCEF09F0E9EF09F049C0D9FF4AC0DAFFB5
:10130000FE0EDF16E9EF09F049C0D9FF4AC0DAFF47
:10131000FD0EDF16E9EF09F049C0D9FF4AC0DAFF38
:10132000FB0EDF16E9EF09F049C0D9FF4AC0DAFF2A
:10133000F70EDF16E9EF09F049C0D9FF4AC0DAFF1E
:10134000EF0EDF16E9EF09F049C0D9FF4AC0DAFF16
:10135000DF0EDF16E9EF09F049C0D9FF4AC0DAFF16
:10136000BF0EDF16E9EF09F049C0D9FF4AC0DAFF26
:101370007F0EDF16E9EF09F04B504C6E4D6A4D5071
:10138000000AD8B4C6EF09F0E9EF09F04C50000AA2
:10139000D8B47CEF09F0010AD8B484EF09F0030A4D
:1013A000D8B48CEF09F0010AD8B494EF09F0070A19
:1013B000D8B49CEF09F0010AD8B4A4EF09F0030AED
:1013C000D8B4ACEF09F0010AD8B4B4EF09F0E9EFF2
:1013D00009F012005250D8A4F0EF09F0F2EF09F032
:1013E000F4EF09F04BEF0AF0000E566E000E576E48
:1013F000000E546E000E566E000E556E5550050DC3
:101400005250F3244E6E000E4F6E7FEC08F0552ABA
:10141000030E55640EEF0AF010EF0AF0FEEF09F02C
:101420005650050D5250F3244E6E010E4F6E7FEC58
:1014300008F0000E576E5750050D5250F324140F4C
:10144000496E540E4A6E01EC08F05404D8A42BEFF8
:101450000AF02DEF0AF039EF0AF05650040DF35060
:10146000010F5724D96EDA6A5350E16EE26ADFCF7A
:10147000E7FF572A030E576440EF0AF042EF0AF0E5
:101480001BEF0AF0562A030E566449EF0AF04BEFA1
:101490000AF0FCEF09F012004E50D8B452EF0AF0F7
:1014A00054EF0AF0ABEF0AF04E50D96EDA6A040E30
:1014B000DF645DEF0AF05FEF0AF091EF0AF0ABEF47
:1014C0000AF04E50D96EDA6ADF50020DF350250F44
:1014D000D96EDA6ADECF49F0DDCF4AF04E50D96ED0
:1014E000DA6A010ED926DF504B6E71EC09F0ABEFD2
:1014F0000AF04E50D96EDA6ADF50020DF350250F14
:10150000D96EDA6ADECF49F0DDCF4AF04E50D96E9F
:10151000DA6A010ED926DF504B6EF8EC08F0ABEF1B
:101520000AF04E50D96EDA6A020ED926DF504F6E9D
:10153000506A5050000AD8B4A0EF0AF0ABEF0AF09E
:101540004F50000AD8B461EF0AF0010AD8B479EF1D
:101550000AF0ABEF0AF012005250D8A4B2EF0AF032
:10156000B4EF0AF0B6EF0AF0F0EF0AF0000E536E97
:10157000000E536E5350050D5250F3244E6E4CEC3A
:101580000AF05350050D5250F3244E6E000E4F6E6C
:101590007FEC08F0532A030E5364D1EF0AF0D3EF27
:1015A0000AF0BAEF0AF0000E536E5350050D525078
:1015B000F324140F4E6E4CEC0AF05350050D5250AC
:1015C000F324140F4E6E000E4F6E7FEC08F0532A7A
:1015D000030E5364EEEF0AF0F0EF0AF0D5EF0AF0D5
:1015E000120080EC0BF02F0E4E6E4CEC0AF02F0E1A
:1015F0004E6E000E4F6E7FEC08F0800E526E480E5D
:10160000536EEAEC09F0310E4818D8A40AEF0BF03B
:101610000CEF0BF014EF0BF02F0E4E6E010E4F6E11
:101620007FEC08F0FDEF0AF0340E4818D8A41BEF49
:101630000BF01DEF0BF0FDEF0AF02F0E4E6E000EBB
:101640004F6E7FEC08F0FDEF0AF000EF00F0D70ED0
:10165000F66E160EF76E000EF86E00EE80F010EECD
:1016600028F00900F5CFEEFFE550E150FAE1A40EB5
:10167000F66E160EF76E000EF86E00EE01F010EE2C
:1016800033F00900F5CFEEFFE550E150FAE100EE4E
:1016900034F0150EEE6AE806FDE1000EF86E00016A
:1016A000F1EF0AF0313233413435364237383943BD
:1016B0002A302344890F8A0F8B0F8C0F8D0F800FD8
:1016C000810F820F830F840F920F930F940F950F4A
:1016D000960F03000000000200000000020100005D
:1016E00000020200000002030000000204010000EA
:0F16F000020501000002060100000207010000D0
:0A170000800E526EACEC0AF01200ED
:020000040030CA
:0E000000FF02091EFF8181FF0FC00FE00F40BD
:00000001FF
