:040000008BEF0BF087
:1010000000003550D8A407EF08F009EF08F02BEFE7
:1010100008F07EEF08F0010E396E5DEF08F0020E69
:10102000396E5DEF08F0040E396E5DEF08F0080EC2
:10103000396E5DEF08F0100E396E5DEF08F0200E8E
:10104000396E5DEF08F0400E396E5DEF08F0800EEE
:10105000396E5DEF08F03550D96EDA6A010ED92687
:10106000DF50376E386A3850000AD8B43AEF08F0CB
:101070007EEF08F03750000AD8B40BEF08F0010AF1
:10108000D8B40FEF08F0030AD8B413EF08F0010A40
:10109000D8B417EF08F0070AD8B41BEF08F0010A1C
:1010A000D8B41FEF08F0030AD8B423EF08F0010A00
:1010B000D8B427EF08F07EEF08F03650D96EDA6A20
:1010C0003550E16EE26AE750020DF3500B0FE16E0E
:1010D000E26AE6CF37F0E5CF38F037C0E1FF38C03D
:1010E000E2FFE75039143918D8B479EF08F07CEFF3
:1010F00008F0010E7DEF08F0000EDF6E12003A508E
:10110000D8B485EF08F087EF08F0F7EF08F03A5011
:10111000D96EDA6A050EDF6090EF08F092EF08F002
:10112000F7EF08F03B04D8B498EF08F09AEF08F016
:10113000E2EF08F03B50D8B4A0EF08F0A2EF08F0BF
:10114000E2EF08F0F7EF08F03A50D96EDA6A030ED2
:10115000D9263BC0DFFF3A50D96EDA6ADF50020D64
:10116000F350010FD96EDA6ADECF35F0DDCF36F0FD
:101170003A50D96EDA6A010ED926DF50376EF8EC94
:1011800008F0F7EF08F03A50D96EDA6A030ED92664
:101190003BC0DFFF3A50D96EDA6ADF50020DF350E0
:1011A000010FD96EDA6ADECF35F0DDCF36F03A5076
:1011B000D96EDA6A010ED926DF50376E71EC09F06C
:1011C000F7EF08F03B503C6E3D6A3D50000AD8B442
:1011D000ECEF08F0F7EF08F03C50000AD8B4C3EF8A
:1011E00008F0010AD8B4A4EF08F0F7EF08F01200F5
:1011F00035503610D8A4FFEF08F001EF09F043EFA7
:1012000009F070EF09F035C0D9FF36C0DAFF000EE3
:10121000DB8070EF09F035C0D9FF36C0DAFF000E71
:10122000DB8270EF09F035C0D9FF36C0DAFF000E5F
:10123000DB8470EF09F035C0D9FF36C0DAFF000E4D
:10124000DB8670EF09F035C0D9FF36C0DAFF000E3B
:10125000DB8870EF09F035C0D9FF36C0DAFF000E29
:10126000DB8A70EF09F035C0D9FF36C0DAFF000E17
:10127000DB8C70EF09F035C0D9FF36C0DAFF000E05
:10128000DB8E70EF09F03750386E396A3950000A3A
:10129000D8B44DEF09F070EF09F03850000AD8B417
:1012A00003EF09F0010AD8B40BEF09F0030AD8B430
:1012B00013EF09F0010AD8B41BEF09F0070AD8B4FC
:1012C00023EF09F0010AD8B42BEF09F0030AD8B4D0
:1012D00033EF09F0010AD8B43BEF09F070EF09F0E1
:1012E000120035503610D8A478EF09F07AEF09F0E3
:1012F000BCEF09F0E9EF09F035C0D9FF36C0DAFFDD
:10130000FE0EDF16E9EF09F035C0D9FF36C0DAFF6F
:10131000FD0EDF16E9EF09F035C0D9FF36C0DAFF60
:10132000FB0EDF16E9EF09F035C0D9FF36C0DAFF52
:10133000F70EDF16E9EF09F035C0D9FF36C0DAFF46
:10134000EF0EDF16E9EF09F035C0D9FF36C0DAFF3E
:10135000DF0EDF16E9EF09F035C0D9FF36C0DAFF3E
:10136000BF0EDF16E9EF09F035C0D9FF36C0DAFF4E
:101370007F0EDF16E9EF09F03750386E396A3950C1
:10138000000AD8B4C6EF09F0E9EF09F03850000AB6
:10139000D8B47CEF09F0010AD8B484EF09F0030A4D
:1013A000D8B48CEF09F0010AD8B494EF09F0070A19
:1013B000D8B49CEF09F0010AD8B4A4EF09F0030AED
:1013C000D8B4ACEF09F0010AD8B4B4EF09F0E9EFF2
:1013D00009F012003A50D8B4F0EF09F0F2EF09F03A
:1013E00049EF0AF03A50D96EDA6A040EDF64FBEF77
:1013F00009F0FDEF09F02FEF0AF049EF0AF03A503B
:10140000D96EDA6ADF50020DF350150FD96EDA6A21
:10141000DECF35F0DDCF36F03A50D96EDA6A010E04
:10142000D926DF50376E71EC09F049EF0AF03A50D7
:10143000D96EDA6ADF50020DF350150FD96EDA6AF1
:10144000DECF35F0DDCF36F03A50D96EDA6A010ED4
:10145000D926DF50376EF8EC08F049EF0AF03A5021
:10146000D96EDA6A020ED926DF503B6E3C6A3C50D8
:10147000000AD8B43EEF0AF049EF0AF03B50000AE8
:10148000D8B4FFEF09F0010AD8B417EF0AF049EF1A
:101490000AF01200C0EC0BF0260E3A6E340E3B6ED2
:1014A000A4EC0AF03450D8A458EF0AF05AEF0AF02E
:1014B0006CEF0AF05650D8A460EF0AF062EF0AF021
:1014C0006CEF0AF0300E3E6E010E3F6E61EC0BF0D9
:1014D000010E566E84EF0AF03450D8A472EF0AF071
:1014E00074EF0AF084EF0AF05604D8A47AEF0AF0F9
:1014F0007CEF0AF084EF0AF0300E3E6E000E3F6E75
:1015000061EC0BF0000E566E1F0E3A6E330E3B6E02
:10151000A4EC0AF03350D8A490EF0AF092EF0AF04E
:101520009AEF0AF02D0E3E6E010E3F6E61EC0BF04D
:101530004CEF0AF02D0E3E6E000E3F6E61EC0BF08C
:101540004CEF0AF000EF00F03A50D8B4AAEF0AF0DE
:10155000ACEF0AF0F5EF0AF03B50D8A4B2EF0AF076
:10156000B4EF0AF0B8EF0AF0F5EF0AF0F5EF0AF081
:101570003B50D96EDA6A010EDF6E3AC035F03D0E8F
:10158000366E01EC08F03D04D8A4C9EF0AF0CBEFA9
:101590000AF0DEEF0AF03A50D96EDA6A060ED92662
:1015A000DE04D8A4D6EF0AF0D8EF0AF0DEEF0AF096
:1015B0003B50D96EDA6ADF6AF5EF0AF03D50D8A4E5
:1015C000E4EF0AF0E6EF0AF0B6EF0AF03A50D96E0F
:1015D000DA6A060ED926DF50D8A4F1EF0AF0F3EF4D
:1015E0000AF0B6EF0AF0D8EF0AF012003E50D8A485
:1015F000FCEF0AF0FEEF0AF018EF0BF0010E33EFEC
:101600000BF03EC03AF0EAEC09F032EF0BF03EC0CE
:101610003AF0EAEC09F03EC03AF03E50D96EDA6A90
:10162000030ED926DF503B6E7FEC08F032EF0BF053
:101630003E50D96EDA6A020ED926DF503F6E406AFC
:101640004050000AD8B427EF0BF0FEEF0AF03F50ED
:10165000000AD8B407EF0BF0010AD8B401EF0BF081
:10166000FEEF0AF0000E12004150D8A43AEF0BF042
:101670003CEF0BF03EEF0BF060EF0BF020EE51F083
:1016800010EE42F0040EDBCFE3FFE806FCE241502F
:10169000D96EDA6ADF50426E4150D96EDA6A010EB5
:1016A000D926DF50436E000E446E4150D96EDA6A7F
:1016B000020ED926DF50456E420E3E6EF6EC0AF061
:1016C00012003E50D8A467EF0BF069EF0BF06BEF00
:1016D0000BF08AEF0BF020EE4CF010EE40F0040E11
:1016E000DBCFE3FFE806FCE23E50D96EDA6ADF505A
:1016F000406E3E50D96EDA6A010ED926DF50416E37
:10170000000E426E3FC043F0400E3A6E3FC03BF0C9
:101710007FEC08F012004C0EF66E170EF76E000EFE
:10172000F86E00EE01F010EE34F00900F5CFEEFF98
:10173000E550E150FAE100EE47F0100EEE6AE806DF
:10174000FDE1000EF86E00014AEF0AF0890F8A0FE2
:101750008B0F8C0F8D0F800F810F820F830F840FE3
:10176000920F930F940F950F960F02010100000046
:101770000102000101010100020300020200010157
:10178000260E3D6ED1EC0BF01F0E3D6ED1EC0BF032
:10179000300E416E34EC0BF02D0E416E34EC0BF03C
:1017A00012003D50D8A4D7EF0BF0D9EF0BF0DBEFD0
:1017B0000BF0DFEF0BF03DC03AF0EAEC09F012005D
:020000040030CA
:0E000000FF02091EFF8181FF0FC00FE00F40BD
:00000001FF
