:0400000098EF08F07D
:101000000020202020202020202020202020202000
:1010100020005F494E495449414C495A4154494F77
:101020004E5F005F574F524C445F005F48454C4C49
:101030004F5F00256900257500006C6F6164696E63
:10104000672E2E2E2E2E2E2E2E2E2E006C6F6164CD
:10105000696E672E2E2E2E2E2E2E2E2020006C6FC7
:101060006164696E672E2E2E2E2E2E2020202000E9
:101070006C6F6164696E672E2E2E2E20202020203A
:1010800020006C6F6164696E672E2E202020202066
:10109000202020006C6F6164696E67202020202072
:1010A00020202020200020504C454153452057410E
:1010B0004954203D292020002020202020202020CD
:1010C0002020202020202020002020202020202040
:1010D0002020202020202020200020202020202030
:1010E0002020202020202020202000202020202020
:1010F0002020202020202020202020002020202010
:1011000020202020202020202020202000202020FF
:1011100020202020202020202020202020002020EF
:0F11200020202020202020202020202020200000
:101130003A0EF66E100EF76E000EF86E01EE00F02D
:1011400010EE7EF00900F5CFEEFFE550E150FAE138
:10115000B80EF66E100EF76E000EF86E00EE80F010
:1011600010EE77F00900F5CFEEFFE550E150FAE11F
:10117000A60EF66E110EF76E000EF86E00EE01F080
:1011800010EE60F00900F5CFEEFFE550E150FAE116
:1011900000EE61F0130EEE6AE806FDE1000EF86E57
:1011A000000103EF09F0313233413435364237382C
:1011B00039432A302344890F8A0F8B0F8C0F8D0FF0
:1011C000800F810F820F830F840F920F930F940F64
:1011D000950F960F020600000002070000000300B2
:1011E00000000003010000000302000000030300F0
:1011F00000000304000000030500000003060000D7
:1012000000030700000009EC09F005EF09F000EF0A
:0412100000F01200D8
:020000040030CA
:0E000000FF02091EFF8181FF0FC00FE00F40BD
:00000001FF
