:040000008BEF0EF084
:1010000000001250800B1F6E12501224266E11AE7B
:101010000CEF08F00EEF08F00FEF08F026802650D6
:10102000D8B415EF08F017EF08F02CEF08F02628D9
:10103000D8A41DEF08F01FEF08F027EF08F0000E0E
:101040000F6E000E106E000E116E000E126E118EDD
:10105000000E126E34EF08F0000E0F6E000E106ED0
:10106000000E116E000E126E1650800B1F1A1650D5
:101070001624276E15AE3FEF08F041EF08F042EF5F
:1010800008F027802750D8B448EF08F04AEF08F05E
:101090005FEF08F02728D8A450EF08F052EF08F0CF
:1010A0005AEF08F0000E136E000E146E000E156E4F
:1010B000000E166E158E000E166E67EF08F0000E0D
:1010C000136E000E146E000E156E000E166E135089
:1010D000141015101610D8A470EF08F072EF08F075
:1010E0008AEF08F0000E0F6E000E106E000E116EEB
:1010F000000E126E800E11127F0E12121F5012126D
:101100000FC00FF010C010F011C011F012C012F09B
:10111000CDEF09F02650D8A490EF08F092EF08F038
:101120009CEF08F0000E0F6E000E106E000E116E98
:10113000000E126ECDEF09F0275026C017F0186A86
:10114000175E000E185A7F0E1724206E000E18200E
:10115000216E0FC01BF010C01CF011C01DF012C09A
:101160001EF0000E0F6E000E106E000E116E000EBF
:10117000126E000E226E000E236E000E246E000E04
:10118000256E000E276EFDEF08F02750D8B4CBEF88
:1011900008F0CDEF08F0E4EF08F0D8901B361C36CD
:1011A0001D361E36D8900F3610361136123625AE43
:1011B000DCEF08F0DEEF08F0DFEF08F00F80D890EA
:1011C000223623362436253613501B5C14501C5807
:1011D00015501D5816501E58D8A0F1EF08F0F3EF27
:1011E00008F0FCEF08F0258C13501B5E14501C5ABD
:1011F00015501D5A16501E5A272A190E276403EF40
:1012000009F005EF09F0C5EF08F01B501C101D1088
:101210001E10D8B40EEF09F010EF09F028EF09F016
:10122000228028EF09F0D8900F361036113612368A
:1012300025AE1DEF09F01FEF09F020EF09F00F8038
:10124000D89022362336243625362006D8A021060B
:1012500011AE2DEF09F02FEF09F013EF09F0000E9A
:10126000276E25AE36EF09F038EF09F05CEF09F094
:10127000FF0E2214176EFF0E2314186EFF0E241497
:10128000196E7F0E25141A6E1750181019101A10A7
:10129000D8B44DEF09F04FEF09F053EF09F0010E0C
:1012A000276E5CEF09F00FA058EF09F05AEF09F034
:1012B0005CEF09F04FEF09F02750D8B462EF09F066
:1012C00064EF09F088EF09F0010E0F26000E1022DE
:1012D0001122122212A06FEF09F071EF09F088EFCE
:1012E00009F00FC017F010C018F011C019F012C0AB
:1012F0001AF01A341A3219321832173217C00FF096
:1013000018C010F019C011F01AC012F0204A212A9A
:1013100021BE93EF09F0215008E12028D8A093EFD7
:1013200009F095EF09F0A0EF09F0000E216E20689A
:10133000000E0F6E000E106E000E116E000E126E7B
:1013400021BEADEF09F0215006E12004D8B0ABEF8B
:1013500009F0ADEF09F0BBEF09F0000E216E000EB1
:10136000206E000E0F6E000E106E000E116E000E3D
:10137000126E000E1F6E20C026F026A0C2EF09F0EC
:10138000C4EF09F0C7EF09F0118EC8EF09F0119E04
:10139000D8902630126E7EEF08F012003650D8B486
:1013A000D4EF09F0D6EF09F00AEF0BF0630E3764C3
:1013B000DCEF09F0DEEF09F0E0EF09F00AEF0BF0E7
:1013C000640E326E010E336E68EC0CF036C032F0F3
:1013D00037C001F0026A000E046E0A0E036E33EC91
:1013E0000EF00150010B336E68EC0CF03650050F17
:1013F000326E37C001F0026A000E046E0A0E036EF0
:1014000033EC0EF0D8900130010B336E68EC0CF029
:1014100036500A0F326E37C001F0026A000E046EB9
:101420000A0E036E33EC0EF0D8900132D8900130E2
:10143000010B336E68EC0CF036500F0F326E37C074
:1014400001F0026A000E046E0A0E036E33EC0EF019
:10145000D8900132D8900132D8900130010B336E10
:1014600068EC0CF05F0E326E000E336E68EC0CF020
:10147000030E386E980EE82EFED7382EFCD75F0E7E
:10148000326E010E336E68EC0CF036C032F0000E96
:10149000136E000E146E200E156E410E166E375030
:1014A000016E026A036A046A010E0BEC0BF001C0C4
:1014B0000FF002C010F003C011F004C012F001ECF4
:1014C00008F00FC028F010C029F011C02AF012C097
:1014D0002BF0E5EC0BF02850010B336E68EC0CF0B0
:1014E0003650050F326E000E136E000E146E200E75
:1014F000156E410E166E3750016E026A036A046A59
:10150000010E0BEC0BF001C00FF002C010F003C095
:1015100011F004C012F001EC08F00FC028F010C068
:1015200029F011C02AF012C02BF0E5EC0BF0D89096
:101530002830010B336E68EC0CF036500A0F326E17
:10154000000E136E000E146E200E156E410E166EF8
:101550003750016E026A036A046A010E0BEC0BF04D
:1015600001C00FF002C010F003C011F004C012F06F
:1015700001EC08F00FC028F010C029F011C02AF0CB
:1015800012C02BF0E5EC0BF0D8902832D890283020
:10159000010B336E68EC0CF036500F0F326E000EFC
:1015A000136E000E146E200E156E410E166E37501F
:1015B000016E026A036A046A010E0BEC0BF001C0B3
:1015C0000FF002C010F003C011F004C012F001ECE3
:1015D00008F00FC028F010C029F011C02AF012C086
:1015E0002BF0E5EC0BF0D8902832D8902832D89028
:1015F0002830010B336E68EC0CF0640E326E000E76
:10160000336E68EC0CF0030E386E980EE82EFED7A1
:10161000382EFCD71200096E0950D8B412EF0BF027
:1016200014EF0BF036EF0BF004BE1BEF0BF019EFCD
:101630000BF036EF0BF001C005F002C006F003C05E
:1016400007F004C008F0051E061E071E081E052A26
:10165000000E06220722082205C00BF006C00CF07F
:1016600007C00DF008C00EF03EEF0BF001C00BF00C
:1016700002C00CF003C00DF004C00EF001500210C7
:1016800003100410D8A447EF0BF049EF0BF053EF11
:101690000BF0000E016E000E026E000E036E000EC7
:1016A000046EE4EF0BF0960E0A6E5DEF0BF00A2A63
:1016B000D8900E320D320C320B32000E0B14056E28
:1016C000000E0C14066E000E0D14076EFE0E0E14A6
:1016D000086E0550061007100810D8A472EF0BF022
:1016E00074EF0BF057EF0BF082EF0BF00A2A010EAC
:1016F0000B26000E0C220D220E22D8900E320D3237
:101700000C320B32000E0B14056E000E0C14066E1C
:10171000000E0D14076EFF0E0E14086E0550061015
:1017200007100810D8A497EF0BF099EF0BF076EFA5
:101730000BF0A1EF0BF00A06D8900B360C360D36E5
:101740000E360DBEA6EF0BF0A8EF0BF0B0EF0BF0CE
:10175000020E0A60AEEF0BF0B0EF0BF09BEF0BF058
:101760000AB0B5EF0BF0B7EF0BF0B8EF0BF00D9E32
:10177000D8900A320AC005F0066A076A086A05C0EE
:1017800008F0076A066A056A05500B1206500C122B
:1017900007500D1208500E120950D8B4D2EF0BF0BA
:1017A000D4EF0BF0DCEF0BF004BEDBEF0BF0D9EF66
:1017B0000BF0DCEF0BF00E8E0BC001F00CC002F052
:1017C0000DC003F00EC004F012002A342B34316E29
:1017D0003150D8A4EEEF0BF0F0EF0BF0FAEF0BF076
:1017E000000E286E000E296E000E2A6E000E2B6E63
:1017F00067EF0CF028C02CF029C02DF02AC02EF085
:101800002BC02FF0200E0AEF0CF0D8902F322E3282
:101810002D322C32E82E05EF0CF02C50306E2A8E33
:10182000FF0E2816FF0E2916FF0E2A16000E2B1685
:10183000960E315E31BE21EF0CF01FEF0CF037EF4A
:101840000CF03150800A970FD8B029EF0CF02BEF35
:101850000CF02DEF0CF0F0EF0BF0D8902B322A3279
:1018600029322832313E2DEF0CF04FEF0CF01F0ED5
:1018700031643DEF0CF03FEF0CF047EF0CF0F0EF70
:101880000BF0D890283629362A362B3631063150BF
:10189000D8A44DEF0CF04FEF0CF041EF0CF03050AE
:1018A000D8B455EF0CF057EF0CF05FEF0CF02B1E97
:1018B0002A1E291E286C000E29222A222B2228C02B
:1018C00028F029C029F02AC02AF02BC02BF01200E2
:1018D0003250D8B46EEF0CF070EF0CF0E0EF0CF07B
:1018E0003250D96EDA6A050EDF6079EF0CF07BEFCB
:1018F0000CF0E0EF0CF03304D8B481EF0CF083EF80
:101900000CF0CBEF0CF03350D8B489EF0CF08BEF28
:101910000CF0CBEF0CF0E0EF0CF03250D96EDA6A3D
:10192000030ED92633C0DFFF3250D96EDA6ADF509A
:10193000020DF3503C0FD96EDA6ADECF01F0DDCF35
:1019400002F03250D96EDA6A010ED926DF50036EEA
:10195000E1EC0CF0E0EF0CF03250D96EDA6A030ED5
:10196000D92633C0DFFF3250D96EDA6ADF50020D5C
:10197000F3503C0FD96EDA6ADECF01F0DDCF02F012
:101980003250D96EDA6A010ED926DF50036E5AEC56
:101990000DF0E0EF0CF03350346E356A3550000A2C
:1019A000D8B4D5EF0CF0E0EF0CF03450000AD8B406
:1019B000ACEF0CF0010AD8B48DEF0CF0E0EF0CF0B6
:1019C000120001500210D8A4E8EF0CF0EAEF0CF07E
:1019D0002CEF0DF059EF0DF001C0D9FF02C0DAFF76
:1019E000000EDB8059EF0DF001C0D9FF02C0DAFF15
:1019F000000EDB8259EF0DF001C0D9FF02C0DAFF03
:101A0000000EDB8459EF0DF001C0D9FF02C0DAFFF0
:101A1000000EDB8659EF0DF001C0D9FF02C0DAFFDE
:101A2000000EDB8859EF0DF001C0D9FF02C0DAFFCC
:101A3000000EDB8A59EF0DF001C0D9FF02C0DAFFBA
:101A4000000EDB8C59EF0DF001C0D9FF02C0DAFFA8
:101A5000000EDB8E59EF0DF00350046E056A055041
:101A6000000AD8B436EF0DF059EF0DF00450000A1B
:101A7000D8B4ECEF0CF0010AD8B4F4EF0CF0030A80
:101A8000D8B4FCEF0CF0010AD8B404EF0DF0070A4B
:101A9000D8B40CEF0DF0010AD8B414EF0DF0030A1E
:101AA000D8B41CEF0DF0010AD8B424EF0DF059EFB3
:101AB0000DF0120001500210D8A461EF0DF063EF99
:101AC0000DF0A5EF0DF0D2EF0DF001C0D9FF02C06F
:101AD000DAFFFE0EDF16D2EF0DF001C0D9FF02C013
:101AE000DAFFFD0EDF16D2EF0DF001C0D9FF02C004
:101AF000DAFFFB0EDF16D2EF0DF001C0D9FF02C0F6
:101B0000DAFFF70EDF16D2EF0DF001C0D9FF02C0E9
:101B1000DAFFEF0EDF16D2EF0DF001C0D9FF02C0E1
:101B2000DAFFDF0EDF16D2EF0DF001C0D9FF02C0E1
:101B3000DAFFBF0EDF16D2EF0DF001C0D9FF02C0F1
:101B4000DAFF7F0EDF16D2EF0DF00350046E056A48
:101B50000550000AD8B4AFEF0DF0D2EF0DF00450ED
:101B6000000AD8B465EF0DF0010AD8B46DEF0DF09E
:101B7000030AD8B475EF0DF0010AD8B47DEF0DF06B
:101B8000070AD8B485EF0DF0010AD8B48DEF0DF037
:101B9000030AD8B495EF0DF0010AD8B49DEF0DF00B
:101BA000D2EF0DF012000650D8B4D9EF0DF0DBEFF4
:101BB0000DF032EF0EF00650D96EDA6A040EDF64D3
:101BC000E4EF0DF0E6EF0DF018EF0EF032EF0EF04F
:101BD0000650D96EDA6ADF50020DF350500FD96EFD
:101BE000DA6ADECF01F0DDCF02F00650D96EDA6A94
:101BF000010ED926DF50036E5AEC0DF032EF0EF0D5
:101C00000650D96EDA6ADF50020DF350500FD96ECC
:101C1000DA6ADECF01F0DDCF02F00650D96EDA6A63
:101C2000010ED926DF50036EE1EC0CF032EF0EF01E
:101C30000650D96EDA6A020ED926DF50076E086A9E
:101C40000850000AD8B427EF0EF032EF0EF007501C
:101C5000000AD8B4E8EF0DF0010AD8B400EF0EF096
:101C600032EF0EF01200000E066E02BE3CEF0EF0D8
:101C70003AEF0EF042EF0EF0016C021ED8B0022ACD
:101C8000010E066E04BE49EF0EF047EF0EF04DEF69
:101C90000EF0036C041ED8B0042A03500410D8B40C
:101CA00054EF0EF056EF0EF07AEF0EF0010E056EC7
:101CB0005EEF0EF0D89003360436052A04AE63EFCB
:101CC0000EF065EF0EF05AEF0EF00350015C045079
:101CD0000258D8A06EEF0EF070EF0EF074EF0EF019
:101CE0000350015E0450025AD89004320332052E8C
:101CF00065EF0EF00650D8B480EF0EF082EF0EF0D4
:101D000086EF0EF0016C021ED8B0022A01C001F06D
:101D100002C002F012006D0EF66E1E0EF76E000E7F
:101D2000F86E00EE80F010EE15F00900F5CFEEFF32
:101D3000E550E150FAE1400EF66E1E0EF76E000E11
:101D4000F86E00EE3CF010EE2DF00900F5CFEEFF3E
:101D5000E550E150FAE100EE69F0140EEE6AE80693
:101D6000FDE1000EF86E0001B6EF0EF007EC0FF08B
:101D7000000E3B6E000E3A6E800E366E3BC037F0A2
:101D8000CEEC09F0030E396E980EE82EFED7392EF0
:101D9000FCD73A2A090E3A64D0EF0EF0D2EF0EF0DB
:101DA000BCEF0EF03B2A630E3B64D9EF0EF0DBEF85
:101DB0000EF0BAEF0EF0B8EF0EF000EF00F0365074
:101DC000D8A4E5EF0EF0E7EF0EF0E9EF0EF006EF26
:101DD0000FF0000E376E000E376E3750050D36507F
:101DE000F324066ED3EC0DF03750050D3650F32476
:101DF000326E000E336E68EC0CF0372A030E376437
:101E000004EF0FF006EF0FF0EDEF0EF01200800E72
:101E1000366EDFEC0EF0640E066ED3EC0DF0640E41
:101E2000326E000E336E68EC0CF05F0E066ED3EC73
:101E30000DF05F0E326E000E336E68EC0CF0120087
:101E4000890F8A0F8B0F8C0F8D0F800F810F820FE0
:101E5000830F840F920F930F940F950F960F00012D
:101E60000001010205000000020400000002000061
:101E70000000020100000002020000000203000056
:021E8000000060
:020000040030CA
:0E000000FF02091EFF8181FF0FC00FE00F40BD
:00000001FF
