:0400000007EF00F016
:0A0008006D82D0ED0CF05FEF0CF0FC
:101000000020202020202020202020202020202000
:1010100020005F494E495449414C495A4154494F77
:101020004E5F005F574F524C445F005F48454C4C49
:101030004F5F00256900257500005550D8A423EFA7
:1010400008F025EF08F047EF08F0D2EF08F0010EA6
:10105000586E79EF08F0020E586E79EF08F0040E22
:10106000586E79EF08F0080E586E79EF08F0100E00
:10107000586E79EF08F0200E586E79EF08F0400EA8
:10108000586E79EF08F0800E586E79EF08F05550E1
:10109000D96EDA6A010ED926DF50566E576A57505C
:1010A000000AD8B456EF08F0D2EF08F05650000A04
:1010B000D8B427EF08F0010AD8B42BEF08F0030AE0
:1010C000D8B42FEF08F0010AD8B433EF08F0070ABC
:1010D000D8B437EF08F0010AD8B43BEF08F0030AA0
:1010E000D8B43FEF08F0010AD8B443EF08F0D2EFCC
:1010F00008F05550D96EDA6ADF50020DF350110F27
:10110000D96EDA6ADECF56F0DDCF57F056C0D9FF80
:1011100057C0DAFF5850DF1A5550D96EDA6ADF50DF
:10112000020DF350110FD96EDA6ADECF56F0DDCF23
:1011300057F056C0D9FF57C0DAFFDF50581458187F
:10114000D8A4A5EF08F0A7EF08F0B0EF08F05550CD
:10115000D96EDA6A030ED926010EDF6ED2EF08F0DF
:101160005550D96EDA6ADF50020DF350110FD96E67
:10117000DA6ADECF56F0DDCF57F056C0D9FF57C040
:10118000DAFFDF5058140009D8A4C9EF08F0CBEFFC
:1011900008F0D2EF08F05550D96EDA6A030ED9265E
:1011A000010EDF6E12006750D8A4D9EF08F0DBEF14
:1011B00008F03DEF09F05BEF09F06750D96EDA6A8D
:1011C000080ED926DE04D8A4E8EF08F0EAEF08F00C
:1011D000EDEF08F0F18C5BEF09F06750D96EDA6A39
:1011E000080ED926DF50D8A4F8EF08F0FAEF08F07F
:1011F0005BEF09F0F19C5BEF09F06750D96EDA6A9A
:10120000080ED926DE04D8A408EF09F00AEF09F089
:101210000DEF09F0F18A5BEF09F06750D96EDA6AD9
:10122000080ED926DF50D8A418EF09F01AEF09F0FC
:101230005BEF09F0F19A5BEF09F06750D96EDA6A5B
:10124000080ED926DE04D8A428EF09F02AEF09F009
:101250002DEF09F0F1885BEF09F06750D96EDA6A7B
:10126000080ED926DF50D8A438EF09F03AEF09F07C
:101270005BEF09F0F1985BEF09F06750D96EDA6A1D
:10128000070ED926DF50686E696A6950000AD8B423
:101290004CEF09F05BEF09F06850000AD8B4DDEFBD
:1012A00008F0010AD8B4FDEF08F0030AD8B41DEF26
:1012B00009F05BEF09F012000001F651F711D8B404
:1012C00064EF09F066EF09F0DDEF09F0F6C0D9FF31
:1012D000F7C0DAFF050EDF6070EF09F072EF09F07A
:1012E000DDEF09F0F805D8B478EF09F07AEF09F0EE
:1012F000C8EF09F0F851D8B480EF09F082EF09F097
:10130000C8EF09F0DDEF09F020EE03F0F651D92621
:10131000F751DA22F8C0DFFFF6C0D9FFF7C0DAFFD5
:10132000DF50020DF350110FD96EDA6ADECF67F08D
:10133000DDCF68F020EE01F0F651D926F751DA2220
:10134000DF50696EDEEC09F0DDEF09F020EE03F00E
:10135000F651D926F751DA22F8C0DFFFF6C0D9FFDF
:10136000F7C0DAFFDF50020DF350110FD96EDA6AC1
:10137000DECF67F0DDCF68F020EE01F0F651D92620
:10138000F751DA22DF50696E57EC0AF0DDEF09F011
:10139000F851F96FFA6BFA51000AD8B4D2EF09F09C
:1013A000DDEF09F0F951000AD8B4A6EF09F0010AFF
:1013B000D8B484EF09F0DDEF09F01200675068102F
:1013C000D8A4E5EF09F0E7EF09F029EF0AF056EFAE
:1013D0000AF067C0D9FF68C0DAFF000EDB8056EF65
:1013E0000AF067C0D9FF68C0DAFF000EDB8256EF53
:1013F0000AF067C0D9FF68C0DAFF000EDB8456EF41
:101400000AF067C0D9FF68C0DAFF000EDB8656EF2E
:101410000AF067C0D9FF68C0DAFF000EDB8856EF1C
:101420000AF067C0D9FF68C0DAFF000EDB8A56EF0A
:101430000AF067C0D9FF68C0DAFF000EDB8C56EFF8
:101440000AF067C0D9FF68C0DAFF000EDB8E56EFE6
:101450000AF069506A6E6B6A6B50000AD8B433EFB9
:101460000AF056EF0AF06A50000AD8B4E9EF09F022
:10147000010AD8B4F1EF09F0030AD8B4F9EF09F082
:10148000010AD8B401EF0AF0070AD8B409EF0AF04C
:10149000010AD8B411EF0AF0030AD8B419EF0AF020
:1014A000010AD8B421EF0AF056EF0AF01200675093
:1014B0006810D8A45EEF0AF060EF0AF0A2EF0AF01D
:1014C000CFEF0AF067C0D9FF68C0DAFFFE0EDF1663
:1014D000CFEF0AF067C0D9FF68C0DAFFFD0EDF1654
:1014E000CFEF0AF067C0D9FF68C0DAFFFB0EDF1646
:1014F000CFEF0AF067C0D9FF68C0DAFFF70EDF163A
:10150000CFEF0AF067C0D9FF68C0DAFFEF0EDF1631
:10151000CFEF0AF067C0D9FF68C0DAFFDF0EDF1631
:10152000CFEF0AF067C0D9FF68C0DAFFBF0EDF1641
:10153000CFEF0AF067C0D9FF68C0DAFF7F0EDF1671
:10154000CFEF0AF069506A6E6B6A6B50000AD8B42C
:10155000ACEF0AF0CFEF0AF06A50000AD8B462EF9D
:101560000AF0010AD8B46AEF0AF0030AD8B472EF9D
:101570000AF0010AD8B47AEF0AF0070AD8B482EF69
:101580000AF0010AD8B48AEF0AF0030AD8B492EF3D
:101590000AF0010AD8B49AEF0AF0CFEF0AF012006D
:1015A0000001F651F711D8B4D8EF0AF0DAEF0AF0DB
:1015B00037EF0BF0F6C0D9FFF7C0DAFF040EDF6497
:1015C000E4EF0AF0E6EF0AF01CEF0BF037EF0BF058
:1015D000F6C0D9FFF7C0DAFFDF50020DF350250F38
:1015E000D96EDA6ADECF67F0DDCF68F020EE01F069
:1015F000F651D926F751DA22DF50696E57EC0AF01E
:1016000037EF0BF0F6C0D9FFF7C0DAFFDF50020D5D
:10161000F350250FD96EDA6ADECF67F0DDCF68F0C0
:1016200020EE01F0F651D926F751DA22DF50696E2B
:10163000DEEC09F037EF0BF020EE02F0F651D92680
:10164000F751DA22DF50F86FF96BF951000AD8B47C
:101650002CEF0BF037EF0BF0F851000AD8B4E8EF9D
:101660000AF0010AD8B402EF0BF037EF0BF01200CA
:101670006C6F6164696E672E2E2E2E2E2E2E2E2EEE
:101680002E006C6F6164696E672E2E2E2E2E2E2E0C
:101690002E2020006C6F6164696E672E2E2E2E2E18
:1016A0002E20202020006C6F6164696E672E2E2E24
:1016B0002E202020202020006C6F6164696E672E30
:1016C0002E2020202020202020006C6F6164696E75
:1016D00067202020202020202020200020504C4562
:1016E0004153452057414954203D292020002020C6
:1016F000202020202020202020202020202000200A
:1017000020202020202020202020202020202000F9
:1017100020202020202020202020202020202020C9
:0117200000C8
:101722006950D8A497EF0BF099EF0BF0BCEF0BF0D8
:10173200DAEF0BF06950D96EDA6ADECF67F0DDCFEF
:1017420068F05DEC0EF0DAEF0BF06950D96EDA6AF0
:10175200DECF67F0DDCF68F04DEC0EF0DAEF0BF084
:101762006950D96EDA6ADECF67F0DDCF68F03DEC02
:101772000EF0DAEF0BF06950D96EDA6A070ED9264D
:10178200DF506A6E6B6A6B50000AD8B4CBEF0BF075
:10179200DAEF0BF06A50000AD8B49BEF0BF0010AA3
:1017A200D8B4A6EF0BF0030AD8B4B1EF0BF0DAEF1E
:1017B2000BF012000001FB51FC11D8A4E3EF0BF077
:1017C200E5EF0BF007EF0CF0010E23EF0CF0FBC07E
:1017D200F6F0FCC0F7F0D0EC0AF022EF0CF0FBC000
:1017E200F6F0FCC0F7F0D0EC0AF0FBC0F6F0FCC05B
:1017F200F7F0000120EE03F0FB51D926FC51DA226A
:10180200DF50F86F5CEC09F022EF0CF020EE02F0F2
:10181200FB51D926FC51DA22DF50FD6FFE6BFE51DF
:10182200000AD8B417EF0CF0E5EF0BF0FD51000AF7
:10183200D8B4F0EF0BF0010AD8B4E8EF0BF0E5EF03
:101842000BF0000E1200202020202020202020203B
:1018520020202020202000202020202020202020A6
:101862002020202020202000202020202020202096
:101872002020202020202020002020202020202086
:10188200202020202020202020000206000000022C
:101892000700000003000000000301000000030233
:1018A2000000000303000000030400000003050021
:1018B200000003060000000307000000700EF66E31
:1018C200160EF76E000EF86E01EE00F010EEB1F09B
:1018D2000900F5CFEEFFE550E150FAE1480EF66E51
:1018E200180EF76E000EF86E00EE80F010EE76F035
:1018F2000900F5CFEEFFE550E150FAE1C60EF66EB3
:101902001B0EF76E000EF86E00EE01F010EE3BF0CB
:101912000900F5CFEEFFE550E150FAE100EE3CF0B0
:10192200190EEE6AE806FDE16D906D9200012DEF51
:101932000EF00001FF51D8A4A1EF0CF0A3EF0CF0C0
:10194200A5EF0CF0CFEF0CF020EE46F011EEB1F067
:10195200040EDBCFE3FFE806FCE2FF51D96EDA6A40
:10196200DF500101B16F0001FF51D96EDA6A010E39
:10197200D926DF500101B26F000EB36F0001FF5193
:10198200D96EDA6A020ED926DF500101B46FB10EA8
:101992000001FB6F010EFC6FDBEC0BF01200060086
:1019A200FACF5FF0FBCF60F0E1CF61F0E2CF62F0FF
:1019B200D9CF63F0DACF64F0F3CF65F0F4CF66F0FD
:1019C200F2A8E6EF0CF0E8EF0CF0F1EF0CF0F2A267
:1019D200EDEF0CF0EFEF0CF0F1EF0CF001EC0EF08C
:1019E20066C0F4FF65C0F3FF64C0DAFF63C0D9FFCD
:1019F20062C0E2FF61C0E1FF60C0FBFF5FC0FAFFAF
:101A02006D9211006750D8A409EF0DF00BEF0DF0A5
:101A120016EF0DF034EF0DF0F28834EF0DF0F08692
:101A220034EF0DF0F08834EF0DF06750D96EDA6ABA
:101A3200070ED926DF50686E696A6950000AD8B469
:101A420025EF0DF034EF0DF06850000AD8B40DEF19
:101A52000DF0010AD8B410EF0DF0030AD8B413EF59
:101A62000DF034EF0DF012006750D8A43BEF0DF0EB
:101A72003DEF0DF048EF0DF066EF0DF0F29866EFD6
:101A82000DF0F09666EF0DF0F09866EF0DF06750EE
:101A9200D96EDA6A070ED926DF50686E696A695014
:101AA200000AD8B457EF0DF066EF0DF06850000A47
:101AB200D8B43FEF0DF0010AD8B442EF0DF0030A9B
:101AC200D8B445EF0DF066EF0DF012006750D8A4C0
:101AD2006DEF0DF06FEF0DF07AEF0DF098EF0DF066
:101AE200F29298EF0DF0F09098EF0DF0F09298EFDF
:101AF2000DF06750D96EDA6A070ED926DF50686E8C
:101B0200696A6950000AD8B489EF0DF098EF0DF0B8
:101B12006850000AD8B471EF0DF0010AD8B474EF1E
:101B22000DF0030AD8B477EF0DF098EF0DF0120024
:101B32005950D8A49FEF0DF0A1EF0DF0A3EF0DF0D7
:101B4200BEEF0DF020EE3CF010EE5AF0040EDBCFAB
:101B5200E3FFE806FCE25950D96EDA6ADF505A6EAA
:101B62005950D96EDA6A010ED926DF505B6E000E2B
:101B72005C6E5A0E556E1DEC08F012000001FB510E
:101B8200D8A4C6EF0DF0C8EF0DF0CAEF0DF0E2EFEA
:101B92000DF0FBC067F035EC0DF0FBC067F067ECB1
:101BA2000DF0FBC067F0D3EC08F0FBC0FAF018ECC4
:101BB2000EF0FBC069F091EC0BF0FBC067F003EC98
:101BC2000DF0120031323341343536423738394361
:101BD2002A302344890F8A0F8B0F8C0F8D0F800FB1
:101BE200810F820F830F840F920F930F940F950F23
:0F1BF200960FDA1C010001000000010102000043
:101C0200F29253505410D8B409EF0EF00BEF0EF0CD
:101C120017EF0EF002D817EF0EF00500FA6E5350D0
:101C2200FD6E5450FE6EFF6AFA501200120000015F
:101C3200FA51D8A41FEF0EF021EF0EF023EF0EF0B1
:101C42002CEF0EF0FAC06CF0020E6C266CC0F6F0AF
:101C5200F76BD0EC0AF0120072EC0EF0390E0001B4
:101C6200FF6F9AEC0CF02F0E0001FB6FBFEC0DF032
:101C720039EF0EF007EF00F067506810D8A444EF78
:101C82000EF046EF0EF048EF0EF04CEF0EF067C08C
:101C92004FF068C050F0120067506810D8A454EF9B
:101CA2000EF056EF0EF058EF0EF05CEF0EF067C03C
:101CB20051F068C052F0120067506810D8A464EF67
:101CC2000EF066EF0EF068EF0EF06CEF0EF067C0EC
:101CD20053F068C054F01200390E596E99EC0DF0B1
:041CE20012001200DA
:020000040030CA
:0E000000FF02091EFF8181FF0FC00FE00F40BD
:00000001FF
