:0400000040EF0CF0D1
:1010000000004B50D8A407EF08F009EF08F02BEFD1
:1010100008F0B6EF08F0010E4E6E5DEF08F0020E1C
:101020004E6E5DEF08F0040E4E6E5DEF08F0080E98
:101030004E6E5DEF08F0100E4E6E5DEF08F0200E64
:101040004E6E5DEF08F0400E4E6E5DEF08F0800EC4
:101050004E6E5DEF08F04B50D96EDA6A010ED9265C
:10106000DF504C6E4D6A4D50000AD8B43AEF08F08C
:10107000B6EF08F04C50000AD8B40BEF08F0010AA4
:10108000D8B40FEF08F0030AD8B413EF08F0010A40
:10109000D8B417EF08F0070AD8B41BEF08F0010A1C
:1010A000D8B41FEF08F0030AD8B423EF08F0010A00
:1010B000D8B427EF08F0B6EF08F04B50D96EDA6AD3
:1010C000DF50020DF350010FD96EDA6ADECF4CF01B
:1010D000DDCF4DF04CC0D9FF4DC0DAFF4E50DF1AC6
:1010E0004B50D96EDA6ADF50020DF350010FD96E02
:1010F000DA6ADECF4CF0DDCF4DF04CC0D9FF4DC0E9
:10110000DAFFDF504E144E18D8A489EF08F08BEFA9
:1011100008F094EF08F04B50D96EDA6A030ED92626
:10112000010EDF6EB6EF08F04B50D96EDA6ADF5071
:10113000020DF350010FD96EDA6ADECF4CF0DDCF2D
:101140004DF04CC0D9FF4DC0DAFFDF504E140009FE
:10115000D8A4ADEF08F0AFEF08F0B6EF08F04B50B1
:10116000D96EDA6A030ED926010EDF6E12004B50DB
:10117000D8A4BDEF08F0BFEF08F0E1EF08F034EFBE
:1011800009F0010E4F6E13EF09F0020E4F6E13EFD0
:1011900009F0040E4F6E13EF09F0080E4F6E13EFB7
:1011A00009F0100E4F6E13EF09F0200E4F6E13EF83
:1011B00009F0400E4F6E13EF09F0800E4F6E13EFE3
:1011C00009F04B50D96EDA6A010ED926DF504D6E08
:1011D0004E6A4E50000AD8B4F0EF08F034EF09F030
:1011E0004D50000AD8B4C1EF08F0010AD8B4C5EFD9
:1011F00008F0030AD8B4C9EF08F0010AD8B4CDEF5B
:1012000008F0070AD8B4D1EF08F0010AD8B4D5EF36
:1012100008F0030AD8B4D9EF08F0010AD8B4DDEF1A
:1012200008F034EF09F04C50D96EDA6A4B50E16E99
:10123000E26AE750020DF3500B0FE16EE26AE6CF6F
:101240004DF0E5CF4EF04DC0E1FF4EC0E2FFE7505C
:101250004F144F18D8B42FEF09F032EF09F0010EF8
:1012600033EF09F0000EDF6E12005050D8B43BEFA0
:1012700009F03DEF09F0ADEF09F05050D96EDA6A90
:10128000050EDF6046EF09F048EF09F0ADEF09F019
:101290005104D8B44EEF09F050EF09F098EF09F07F
:1012A0005150D8B456EF09F058EF09F098EF09F013
:1012B000ADEF09F05050D96EDA6A030ED92651C04D
:1012C000DFFF5050D96EDA6ADF50020DF350010F84
:1012D000D96EDA6ADECF4BF0DDCF4CF05050D96ECC
:1012E000DA6A010ED926DF504D6EAEEC09F0ADEF93
:1012F00009F05050D96EDA6A030ED92651C0DFFFCB
:101300005050D96EDA6ADF50020DF350010FD96EDA
:10131000DA6ADECF4BF0DDCF4CF05050D96EDA6A8E
:10132000010ED926DF504D6E27EC0AF0ADEF09F023
:101330005150526E536A5350000AD8B4A2EF09F0CC
:10134000ADEF09F05250000AD8B479EF09F0010A64
:10135000D8B45AEF09F0ADEF09F012004B504C1021
:10136000D8A4B5EF09F0B7EF09F0F9EF09F026EFCF
:101370000AF04BC0D9FF4CC0DAFF000EDB8026EF2D
:101380000AF04BC0D9FF4CC0DAFF000EDB8226EF1B
:101390000AF04BC0D9FF4CC0DAFF000EDB8426EF09
:1013A0000AF04BC0D9FF4CC0DAFF000EDB8626EFF7
:1013B0000AF04BC0D9FF4CC0DAFF000EDB8826EFE5
:1013C0000AF04BC0D9FF4CC0DAFF000EDB8A26EFD3
:1013D0000AF04BC0D9FF4CC0DAFF000EDB8C26EFC1
:1013E0000AF04BC0D9FF4CC0DAFF000EDB8E26EFAF
:1013F0000AF04D504E6E4F6A4F50000AD8B403EFBA
:101400000AF026EF0AF04E50000AD8B4B9EF09F0FE
:10141000010AD8B4C1EF09F0030AD8B4C9EF09F042
:10142000010AD8B4D1EF09F0070AD8B4D9EF09F00E
:10143000010AD8B4E1EF09F0030AD8B4E9EF09F0E2
:10144000010AD8B4F1EF09F026EF0AF012004B5070
:101450004C10D8A42EEF0AF030EF0AF072EF0AF029
:101460009FEF0AF04BC0D9FF4CC0DAFFFE0EDF162B
:101470009FEF0AF04BC0D9FF4CC0DAFFFD0EDF161C
:101480009FEF0AF04BC0D9FF4CC0DAFFFB0EDF160E
:101490009FEF0AF04BC0D9FF4CC0DAFFF70EDF1602
:1014A0009FEF0AF04BC0D9FF4CC0DAFFEF0EDF16FA
:1014B0009FEF0AF04BC0D9FF4CC0DAFFDF0EDF16FA
:1014C0009FEF0AF04BC0D9FF4CC0DAFFBF0EDF160A
:1014D0009FEF0AF04BC0D9FF4CC0DAFF7F0EDF163A
:1014E0009FEF0AF04D504E6E4F6A4F50000AD8B42D
:1014F0007CEF0AF09FEF0AF04E50000AD8B432EFAA
:101500000AF0010AD8B43AEF0AF0030AD8B442EF5D
:101510000AF0010AD8B44AEF0AF0070AD8B452EF29
:101520000AF0010AD8B45AEF0AF0030AD8B462EFFD
:101530000AF0010AD8B46AEF0AF09FEF0AF012002D
:101540005050D8B4A6EF0AF0A8EF0AF0FFEF0AF067
:101550005050D96EDA6A040EDF64B1EF0AF0B3EFCF
:101560000AF0E5EF0AF0FFEF0AF05050D96EDA6AA0
:10157000DF50020DF350150FD96EDA6ADECF4BF053
:10158000DDCF4CF05050D96EDA6A010ED926DF500B
:101590004D6E27EC0AF0FFEF0AF05050D96EDA6A70
:1015A000DF50020DF350150FD96EDA6ADECF4BF023
:1015B000DDCF4CF05050D96EDA6A010ED926DF50DB
:1015C0004D6EAEEC09F0FFEF0AF05050D96EDA6ABA
:1015D000020ED926DF50516E526A5250000AD8B41A
:1015E000F4EF0AF0FFEF0AF05150000AD8B4B5EF5B
:1015F0000AF0010AD8B4CDEF0AF0FFEF0AF01200AA
:10160000270E506E340E516E5DEC0BF03450D8A4A2
:101610000CEF0BF00EEF0BF02EEF0BF0010E44264B
:10162000000E452246224722475046100BE1F40E99
:10163000445C010E4558D8A020EF0BF022EF0BF0D0
:1016400038EF0BF0F40E446E010E456E000E466E40
:10165000000E476E010E4A6E38EF0BF0000E446E1E
:10166000000E456E000E466E000E476E000E4A6E6E
:101670004950D8A43EEF0BF040EF0BF04CEF0BF0CD
:101680004A04D8A446EF0BF048EF0BF04CEF0BF0F8
:10169000010E486E4EEF0BF0000E486E4804D8A4C1
:1016A00054EF0BF056EF0BF05AEF0BF0310E4F6E7C
:1016B0001AEC0CF04AC049F012005050D8B463EF55
:1016C0000BF065EF0BF0AEEF0BF05150D8A46BEFC1
:1016D0000BF06DEF0BF071EF0BF0AEEF0BF0AEEF28
:1016E0000BF05150D96EDA6A010EDF6E50C04BF02C
:1016F000530E4C6EB7EC08F05304D8A482EF0BF0F5
:1017000084EF0BF097EF0BF05050D96EDA6A060EAB
:10171000D926DE04D8A48FEF0BF091EF0BF097EFF2
:101720000BF05150D96EDA6ADF6AAEEF0BF053500E
:10173000D8A49DEF0BF09FEF0BF06FEF0BF0505024
:10174000D96EDA6A060ED926DF50D8A4AAEF0BF0BC
:10175000ACEF0BF06FEF0BF091EF0BF01200545069
:10176000D8A4B5EF0BF0B7EF0BF0D1EF0BF0010EF3
:10177000ECEF0BF054C050F0A0EC0AF0EBEF0BF0E4
:1017800054C050F0A0EC0AF054C050F05450D96E40
:10179000DA6A030ED926DF50516E35EC09F0EBEF13
:1017A0000BF05450D96EDA6A020ED926DF50556E0E
:1017B000566A5650000AD8B4E0EF0BF0B7EF0BF0C2
:1017C0005550000AD8B4C0EF0BF0010AD8B4BAEFF4
:1017D0000BF0B7EF0BF0000E12005750D8A4F3EF48
:1017E0000BF0F5EF0BF0F7EF0BF019EF0CF020EE2C
:1017F0003FF010EE58F0040EDBCFE3FFE806FCE20A
:101800005750D96EDA6ADF50586E5750D96EDA6A7F
:10181000010ED926DF50596E000E5A6E5750D96E00
:10182000DA6A020ED926DF505B6E580E546EAFECAA
:101830000BF012004F50D8A420EF0CF022EF0CF068
:1018400024EF0CF03FEF0CF020EE35F010EE50F0EE
:10185000040EDBCFE3FFE806FCE24F50D96EDA6AF4
:10186000DF50506E4F50D96EDA6A010ED926DF5024
:10187000516E000E526E500E4B6E01EC08F01200CD
:10188000B60EF66E180EF76E000EF86E00EE01F052
:1018900010EE34F00900F5CFEEFFE550E150FAE12B
:1018A00000EE35F0160EEE6AE806FDE1000EF86E69
:1018B000000195EF0CF0890F8A0F8B0F8C0F8D0FA5
:1018C000800F810F820F830F840F920F930F940F5D
:1018D000950F960F010201010000000102000101B5
:1018E00001010002030002020001270E536E86EC84
:1018F0000CF0200E536E86EC0CF0310E576EEDECB2
:101900000BF02E0E576EEDEC0BF012005350D8A4D6
:101910008CEF0CF08EEF0CF090EF0CF094EF0CF0DD
:1019200053C050F0A0EC0AF0120075EC0CF000EC83
:0A1930000BF097EF0CF000EF00F051
:020000040030CA
:0E000000FF02091EFF8181FF0FC00FE00F40BD
:00000001FF
