:04000000DAEF0AF039
:1010000000002250D8A407EF08F009EF08F02BEFFA
:1010100008F0B6EF08F0010E256E5DEF08F0020E45
:10102000256E5DEF08F0040E256E5DEF08F0080EEA
:10103000256E5DEF08F0100E256E5DEF08F0200EB6
:10104000256E5DEF08F0400E256E5DEF08F0800E16
:10105000256E5DEF08F02250D96EDA6A010ED926AE
:10106000DF50236E246A2450000AD8B43AEF08F007
:10107000B6EF08F02350000AD8B40BEF08F0010ACD
:10108000D8B40FEF08F0030AD8B413EF08F0010A40
:10109000D8B417EF08F0070AD8B41BEF08F0010A1C
:1010A000D8B41FEF08F0030AD8B423EF08F0010A00
:1010B000D8B427EF08F0B6EF08F02250D96EDA6AFC
:1010C000DF50020DF350010FD96EDA6ADECF23F044
:1010D000DDCF24F023C0D9FF24C0DAFF2550DF1A6A
:1010E0002250D96EDA6ADF50020DF350010FD96E2B
:1010F000DA6ADECF23F0DDCF24F023C0D9FF24C08D
:10110000DAFFDF5025142518D8A489EF08F08BEFFB
:1011100008F094EF08F02250D96EDA6A030ED9264F
:10112000010EDF6EB6EF08F02250D96EDA6ADF509A
:10113000020DF350010FD96EDA6ADECF23F0DDCF56
:1011400024F023C0D9FF24C0DAFFDF5025140009A2
:10115000D8A4ADEF08F0AFEF08F0B6EF08F02250DA
:10116000D96EDA6A030ED926010EDF6E12002750FF
:10117000D8B4BDEF08F0BFEF08F02FEF09F027500B
:10118000D96EDA6A050EDF60C8EF08F0CAEF08F022
:101190002FEF09F02804D8B4D0EF08F0D2EF08F010
:1011A0001AEF09F02850D8B4D8EF08F0DAEF08F0B9
:1011B0001AEF09F02FEF09F02750D96EDA6A030E03
:1011C000D92628C0DFFF2750D96EDA6ADF50020D1A
:1011D000F350010FD96EDA6ADECF22F0DDCF23F0B3
:1011E0002750D96EDA6A010ED926DF50246E30EC12
:1011F00009F02FEF09F02750D96EDA6A030ED926CD
:1012000028C0DFFF2750D96EDA6ADF50020DF35095
:10121000010FD96EDA6ADECF22F0DDCF23F027503E
:10122000D96EDA6A010ED926DF50246E09EC0AF075
:101230002FEF09F02850296E2A6A2A50000AD8B4E4
:1012400024EF09F02FEF09F02950000AD8B4FBEF82
:1012500008F0010AD8B4DCEF08F02FEF09F0120013
:1012600022502310D8A437EF09F039EF09F07BEFB3
:1012700009F0A8EF09F022C0D9FF23C0DAFF000E61
:10128000DB80A8EF09F022C0D9FF23C0DAFF000EEF
:10129000DB82A8EF09F022C0D9FF23C0DAFF000EDD
:1012A000DB84A8EF09F022C0D9FF23C0DAFF000ECB
:1012B000DB86A8EF09F022C0D9FF23C0DAFF000EB9
:1012C000DB88A8EF09F022C0D9FF23C0DAFF000EA7
:1012D000DB8AA8EF09F022C0D9FF23C0DAFF000E95
:1012E000DB8CA8EF09F022C0D9FF23C0DAFF000E83
:1012F000DB8EA8EF09F02450256E266A2650000ADE
:10130000D8B485EF09F0A8EF09F02550000AD8B449
:101310003BEF09F0010AD8B443EF09F0030AD8B44F
:101320004BEF09F0010AD8B453EF09F0070AD8B41B
:101330005BEF09F0010AD8B463EF09F0030AD8B4EF
:101340006BEF09F0010AD8B473EF09F0A8EF09F0C8
:1013500012002750D8B4AFEF09F0B1EF09F008EF51
:101360000AF02750D96EDA6A040EDF64BAEF09F08A
:10137000BCEF09F0EEEF09F008EF0AF02750D96E44
:10138000DA6ADF50020DF350150FD96EDA6ADECF3C
:1013900022F0DDCF23F02750D96EDA6A010ED9266C
:1013A000DF50246E09EC0AF008EF0AF02750D96EDE
:1013B000DA6ADF50020DF350150FD96EDA6ADECF0C
:1013C00022F0DDCF23F02750D96EDA6A010ED9263C
:1013D000DF50246E30EC09F008EF0AF02750D96E88
:1013E000DA6A020ED926DF50286E296A2950000ACF
:1013F000D8B4FDEF09F008EF0AF02850000AD8B47D
:10140000BEEF09F0010AD8B4D6EF09F008EF0AF0F0
:10141000120022502310D8A410EF0AF012EF0AF0A5
:101420001BEF0AF048EF0AF022C0D9FF23C0DAFF11
:10143000DF6A48EF0AF02450256E266A2650000A1B
:10144000D8B425EF0AF048EF0AF02550000AD8B4C6
:1014500014EF0AF0010AD8B414EF0AF0030AD8B462
:1014600014EF0AF0010AD8B414EF0AF0070AD8B44E
:1014700014EF0AF0010AD8B414EF0AF0030AD8B442
:1014800014EF0AF0010AD8B414EF0AF048EF0AF09A
:1014900012002B50D8A44FEF0AF051EF0AF06BEF77
:1014A0000AF0010E86EF0AF02BC027F0A9EC09F034
:1014B00085EF0AF02BC027F0A9EC09F02BC027F02C
:1014C0002B50D96EDA6A030ED926DF50286EB7EC9E
:1014D00008F085EF0AF02B50D96EDA6A020ED92691
:1014E000DF502C6E2D6A2D50000AD8B47AEF0AF026
:1014F00051EF0AF02C50000AD8B45AEF0AF0010A52
:10150000D8B454EF0AF051EF0AF0000E12002E503A
:10151000D8A48DEF0AF08FEF0AF091EF0AF0B3EF45
:101520000AF020EE40F010EE2FF0040EDBCFE3FFC8
:10153000E806FCE22E50D96EDA6ADF502F6E2E508C
:10154000D96EDA6A010ED926DF50306E000E316E88
:101550002E50D96EDA6A020ED926DF50326E2F0E67
:101560002B6E49EC0AF012002650D8A4BAEF0AF00C
:10157000BCEF0AF0BEEF0AF0D9EF0AF020EE36F029
:1015800010EE27F0040EDBCFE3FFE806FCE2265066
:10159000D96EDA6ADF50276E2650D96EDA6A010EEC
:1015A000D926DF50286E000E296E270E226E01EC20
:1015B00008F012001A0EF66E160EF76E000EF86E98
:1015C00000EE01F010EE21F00900F5CFEEFFE5503E
:1015D000E150FAE100EE36F00F0EEE6AE806FDE1AA
:1015E000000EF86E0001F5EF0AF01F0E2E6E87EC6C
:1015F0000AF01F0E266EB4EC0AF0020E356E040ED1
:10160000346EBA0EE82EFED7342EFCD7352EFAD71C
:1016100000D0F9EF0AF000EF00F0890F8A0F8B0F6E
:101620008C0F8D0F800F810F820F830F840F920F0D
:0B163000930F940F950F960F02050119
:020000040030CA
:0E000000FF02091EFF8181FF0FC00FE00F40BD
:00000001FF
