:0400000031EF0AF0E2
:1010000000002250D8B4120011D0010E0DD0020EF3
:101010000BD0040E09D0080E07D0100E05D0200EFC
:1010200003D0400E01D0800E256E26D02250D96EFE
:10103000DA6A010ED926DF50236E246A2450000A92
:10104000D8A412002350000AD8B4DFD7010AD8B4BC
:10105000DED7030AD8B4DDD7010AD8B4DCD7070A33
:10106000D8B4DBD7010AD8B4DAD7030AD8B4D9D7B1
:10107000010AD8A41200D7D72250D96EDA6ADF50FD
:10108000020DF350010FD96EDA6ADECF23F0DDCF07
:1010900024F023C0D9FF24C0DAFF2550DF1A2250E4
:1010A000D96EDA6ADF50020DF350010FD96EDA6A99
:1010B000DECF23F0DDCF24F023C0D9FF24C0DAFF38
:1010C000DF5025142518D8A408D02250D96EDA6A2A
:1010D000030ED926010EDF6E12002250D96EDA6A95
:1010E000DF50020DF350010FD96EDA6ADECF23F024
:1010F000DDCF24F023C0D9FF24C0DAFFDF50251450
:101100000009D8A412002250D96EDA6A030ED9263B
:10111000010EDF6E120022502310D8B4120038D016
:1011200022C0D9FF23C0DAFF000EDB80120022C0EC
:10113000D9FF23C0DAFF000EDB82120022C0D9FFE4
:1011400023C0DAFF000EDB84120022C0D9FF23C0C7
:10115000DAFF000EDB86120022C0D9FF23C0DAFFBF
:10116000000EDB88120022C0D9FF23C0DAFF000E78
:10117000DB8A120022C0D9FF23C0DAFF000EDB8C0D
:10118000120022C0D9FF23C0DAFF000EDB8E12004E
:101190002450256E266A2650000AD8A41200255035
:1011A000000AD8B4BDD7010AD8B4C1D7030AD8B44D
:1011B000C5D7010AD8B4C9D7070AD8B4CDD7010A10
:1011C000D8B4D1D7030AD8B4D5D7010AD8A412000D
:1011D000D8D72750D8B412002750D96EDA6A050E36
:1011E000DF6012002804D8B440D02850D8A41200E0
:1011F0003CD02750D96EDA6A030ED92628C0DFFF0B
:101200002750D96EDA6ADF50020DF350010FD96E04
:10121000DA6ADECF22F0DDCF23F02750D96EDA6A0A
:10122000010ED926DF50246E8BEC08F012002750F7
:10123000D96EDA6A030ED92628C0DFFF2750D96E8F
:10124000DA6ADF50020DF350010FD96EDA6ADECF91
:1012500022F0DDCF23F02750D96EDA6A010ED926AD
:10126000DF50246EC0EC09F012002850296E2A6A63
:101270002A50000AD8A412002950000AD8B4D7D79F
:10128000010AD8A41200B5D72750D8B412002750AD
:10129000D96EDA6A040EDF642FD012002750D96E9F
:1012A000DA6ADF50020DF350150FD96EDA6ADECF1D
:1012B00022F0DDCF23F02750D96EDA6A010ED9264D
:1012C000DF50246EC0EC09F012002750D96EDA6AA4
:1012D000DF50020DF350150FD96EDA6ADECF22F01F
:1012E000DDCF23F02750D96EDA6A010ED926DF5000
:1012F000246E8BEC08F012002750D96EDA6A020EC9
:10130000D926DF50286E296A2950000AD8A4120075
:101310002850000AD8B4C2D7010AD8A41200D5D7E1
:101320002B50D8A417D0010E12002BC027F044EC8C
:1013300009F024D02BC027F044EC09F02BC027F093
:101340002B50D96EDA6A030ED926DF50286EE9ECED
:1013500008F014D02B50D96EDA6A020ED926DF506D
:101360002C6E2D6A2D50000AD8A4DDD72C50000A0F
:10137000D8B4E0D7010AD8B4D8D7D5D7000E120018
:1013800022502310D8B4120006D022C0D9FF23C0A7
:10139000DAFFDF6A12002450256E266A2650000A02
:1013A000D8A412002550000AD8B4EFD7010AD8B447
:1013B000ECD7030AD8B4E9D7010AD8B4E6D7070AAC
:1013C000D8B4E3D7010AD8B4E0D7030AD8B4DDD73C
:1013D000010AD8A41200D9D72E50D8B4120020EE9A
:1013E00040F010EE2FF0040EDBCFE3FFE806FCE246
:1013F0002E50D96EDA6ADF502F6E2E50D96EDA6A0F
:10140000010ED926DF50306E000E316E2E50D96E8F
:10141000DA6A020ED926DF50326E2F0E2B6E90EC58
:1014200009F012002650D8B4120020EE36F010EE6B
:1014300027F0040EDBCFE3FFE806FCE22650D96E6E
:10144000DA6ADF50276E2650D96EDA6A010ED92685
:10145000DF50286E000E296E270E226E01EC08F078
:101460001200C20EF66E140EF76E000EF86E00EE4D
:1014700001F010EE21F00900F5CFEEFFE550E1504C
:10148000FAE100EE36F00F0EEE6AE806FDE1000E1E
:10149000F86E00014CEF0AF01F0E2E6EECEC09F016
:1014A0001F0E266E12EC0AF0020E356E040E346E1C
:1014B000BA0EE82EFED7342EFCD7352EFAD700D040
:1014C000EFD7890F8A0F8B0F8C0F8D0F800F810F35
:1014D000820F830F840F920F930F940F950F960F27
:0314E00002050101
:020000040030CA
:0E000000FF02091EFF8181FF0FC00FE00F40BD
:00000001FF
